:100000000C9438010C9469010C9469010C946901F9
:100010000C9469010C9469010C9469010C946901B8
:100020000C9469010C9469010C9469010C946901A8
:100030000C9469010C9469010C9469010C94690198
:100040000C9469010C94CA080C9469010C94690120
:100050000C9469010C9469010C9469010C94960745
:100060000C9469010C940A080C94E0070C94690143
:100070000C9469010C9469010C9469010C94690158
:100080000C949C080C9469010C9469010C9469010E
:100090000C9469010C9469010C9469010C94690138
:1000A0000C9469010C9469010C946E080C9469011C
:1000B0000C9469010C9469010C9469010C9440083A
:1000C0000C9469010C9469010C9469010C94690108
:1000D0000C9469010C9469010C9469010C946901F8
:1000E0000C9469010C94EE010C94F2010C94E80359
:1000F0000C94FF010C9438040C9403020C94CB0470
:100100000C94D3010C9417020C941B020C946609F6
:100110000C94F6010C9411020C94D8010C94EA0191
:100120000C94F9010C9424040C941F020C94640D9B
:100130000C9446040C947E040C9409020C9429023D
:100140000C9415040C9425020C940D02000021005F
:10015000240027002A002D00300033000101000098
:10016000040107010A0100002200250028002B00DD
:100170002E003100340002010000050108010B01CE
:1001800000000A0B02090C0D0E0807030401000011
:10019000000000000000000000000000000000005F
:1001A000000000000000000000000000121110001C
:1001B000000000000000000000000000000000003F
:1001C000000000000000000020002300260029009D
:1001D0002C002F003200000100000301060109017C
:1001E00005050505070508080808020202020A0AB3
:1001F00008080404040401010101010101010303D1
:10020000030303030303040707070C0C0C0C0C0C7B
:100210000C0C0202020206060606060606060B0B78
:100220000B0B0B0B0B0B01021020200808102040B9
:1002300010204080020102010804020101020408AA
:100240001020408080402010080402018004020138
:100250008040201008040201080402010102040881
:100260001020408001020408102040806609640DBF
:1002700011241FBECFEFD1E2DEBFCDBF00E00CBF27
:1002800013E0A0E0B2E0ECE2F4E200E00BBF02C059
:1002900007900D92A437B107D9F724E0A4E7B3E0A3
:1002A00001C01D92A43EB207E1F711E0C7E3D1E01F
:1002B00000E006C021970109802FFE010E94E60F91
:1002C000C633D10780E00807A9F70E94E7090C941C
:1002D00004120C940000CF92DF92EF92FF92CF9322
:1002E000DF93B091CE04A0E08111AB2F8091CF04B9
:1002F00090E0880F991FAC014A535E4FC090D40420
:10030000D090D504E090D604F090D70430E020E0FF
:10031000FA01C591D491E881B90190E080E0EB2326
:10032000EA130AC02F5F3F4F6C157D058E059F05B0
:1003300078F36FEF7FEFCB01DF91CF91FF90EF90DC
:10034000DF90CF900895282F30E0F901E058FE4F5C
:100350009491F901EA5DFD4F449120523E4FF9011D
:100360002491222309F435C0992311F1915092313F
:10037000F8F4E92FF0E08827EF53FE4F8F4F0C94ED
:10038000E60FF201F601D301EA01EE01D801F9010D
:10039000FF01030209020D02110217021B02D8011C
:1003A0001F0225022902809180008F7780938000B0
:1003B000E22FF0E0EE0FFF1FEA59FE4FA591B49136
:1003C0008FB7F894EC91611148C040954E234C933F
:1003D0008FBF0895809180008F7DE8CF809180004D
:1003E000877FE4CF84B58F7784BDE2CF84B58F7DDE
:1003F000FBCF8091B0008F778093B000D9CF8091F0
:10040000B0008F7DF9CF809190008F77809390001E
:10041000CFCF809190008F7DF9CF80919000877F22
:10042000F5CF8091A0008F778093A000C1CF8091FD
:10043000A0008F7DF9CF8091A000877FF5CF8091BC
:1004400020018F7780932001B3CF809120018F7D91
:10045000F9CF80912001877FF5CF4E2BB8CFCF9376
:10046000DF9390E0FC01EA5DFD4F249180529E4FA6
:10047000FC0184918823C9F090E0880F991FFC014A
:10048000E45BFE4FA591B491FC01EA59FE4FC59182
:10049000D49161110DC09FB7F8948C91209582235F
:1004A0008C938881282328839FBFDF91CF91089563
:1004B000623051F49FB7F8943C91822F809583234A
:1004C0008C93E8812E2BEFCF8FB7F894EC912E2BE5
:1004D0002C938FBFEACF90917B00977F90937B0006
:1004E0008653806480937C0080917A00806480933E
:1004F0007A0080917A0086FDFCCF809178009091FF
:10050000790008953FB7F89480918803909189030A
:10051000A0918A03B0918B0326B5A89B05C02F3FFD
:1005200019F00196A11DB11D3FBFBA2FA92F982F19
:100530008827BC01CD01620F711D811D911D42E014
:10054000660F771F881F991F4A95D1F708958F92DC
:100550009F92AF92BF92CF92DF92EF92FF924B01A8
:100560005C010E9482026B017C010E9482026C1974
:100570007D098E099F09683E734081059105A8F3A6
:1005800021E0821A9108A108B10888EEC80E83E024
:10059000D81EE11CF11C81149104A104B10429F7B7
:1005A000FF90EF90DF90CF90BF90AF909F908F9093
:1005B0000895CF92DF92EF92FF920F931F93CF9304
:1005C000DF93CDB7DEB7C054D1400FB6F894DEBF8D
:1005D0000FBECDBF2FB7F89480918C0390918D03FF
:1005E000A0918E03B0918F032FBF4091D004509102
:1005F000D1046091D2047091D3048C019D01041B3D
:10060000150B260B370BB901A801403D574061057A
:10061000710590F48091D804C05CDE4F0FB6F89459
:10062000DEBF0FBECDBFDF91CF911F910F91FF9025
:10063000EF90DF90CF9008958093D0049093D104F1
:10064000A093D204B093D3041092CB041092CA04A6
:100650001092C9041092C8041092C70462E08091FD
:10066000CC040E942F0261E070E080E090E00E94E4
:10067000A70261E08091CC040E942F0260E080918B
:10068000CC040E94A3018091CD048551823020F5D5
:100690008BE291E10197F1F762E08091CC040E9436
:1006A0002F028091D90490E08230910538F0880FB4
:1006B000991F880F991F05970197F1F7F89480E02B
:1006C0000E946B016F3F7F4F8F4F9F4F61F41092DD
:1006D000D804789480E0A0CF64E170E080E090E0FE
:1006E0000E94A702D9CF81E00E946B016F3F7F4F2C
:1006F0008F4F9F4F61F38E010F5F1F4F6E018FEB86
:10070000C81A8EEFD80A780180E00E946B01F701C9
:10071000608371838283938381E00E946B01F70180
:100720006483758386839783F8E0EF0EF11CEC14E5
:10073000FD0451F7789430E020E0F801C080D180CA
:10074000E280F3804481558166817781FFEFCF1687
:10075000DF06EF06FF0631F04F3F8FEF58076807BF
:10076000780719F41092D804B5CFF90183E0F59514
:10077000E7958A95E1F7E953FB4F8081880FC4160E
:10078000D506E606F70610F180832F5F3F4F085F1E
:100790001F4F2832310589F64091CB042091C704C0
:1007A0008091C804280F3327331F8091C904280F74
:1007B000311D8091CA04820F932F911D99274817EC
:1007C000190681F681E08093D80426CF8160DCCFC2
:1007D000AF92BF92CF92DF92EF92FF920F931F934F
:1007E000CF93DF936C017B018B01040F151FEB018D
:1007F0005E01AE18BF08C017D10759F06991D60144
:10080000ED91FC910190F081E02DC6011995892BA5
:1008100079F7C501DF91CF911F910F91FF90EF9074
:10082000DF90CF90BF90AF900895FC01538D448D21
:10083000252F30E0842F90E0821B930B541710F08B
:10084000CF96089501970895FC01918D828D981798
:1008500061F0A28DAE0FBF2FB11D5D968C91928D70
:100860009F5F9F73928F90E008958FEF9FEF0895A1
:10087000FC01918D828D981731F0828DE80FF11D6A
:10088000858D90E008958FEF9FEF0895FC01918D85
:10089000228D892F90E0805C9F4F821B91098F737E
:1008A0009927089580E993E00E94460421E0892B6E
:1008B00009F420E0822F0895FC01A48DA80FB92F20
:1008C000B11DA35ABF4F2C91848D90E001968F7378
:1008D0009927848FA689B7892C93A089B1898C9197
:1008E000837080648C93938D848D981306C00288E6
:1008F000F389E02D80818F7D80830895EF92FF92B0
:100900000F931F93CF93DF93EC0181E0888F9B8D32
:100910008C8D98131AC0E889F989808185FF15C0EC
:100920009FB7F894EE89FF896083E889F98980810F
:100930008370806480839FBF81E090E0DF91CF91DE
:100940001F910F91FF90EF900895F62E0B8D10E000
:100950000F5F1F4F0F731127E02E8C8D8E110CC06F
:100960000FB607FCFACFE889F989808185FFF5CFBA
:10097000CE010E945C04F1CFEB8DEC0FFD2FF11D39
:10098000E35AFF4FF0829FB7F8940B8FEA89FB89F7
:1009900080818062CFCFCF93DF93EC01888D882355
:1009A000B9F0AA89BB89E889F9898C9185FD03C0D2
:1009B000808186FD0DC00FB607FCF7CF8C9185FFB7
:1009C000F2CF808185FFEDCFCE010E945C04E9CF9C
:1009D000DF91CF91089580E090E0892B29F00E946B
:1009E000520481110E94000080E090E0892B49F0C0
:1009F00080E090E0892B29F00E94000081110E9484
:100A0000000080E090E0892B49F080E090E0892BA5
:100A100029F00E94000081110E94000080E090E017
:100A2000892B49F080E090E0892B29F00E9400009A
:100A300081110C9400000895AF92BF92CF92DF9283
:100A4000EF92FF920F931F93CF93DF936B017A0185
:100A5000EC01CC58DC4F28813CE0389F8001399F65
:100A6000100D1124A090BD04B12C27FF1FC0FB0165
:100A70001182108288818F5F888388819801280F76
:100A8000311D87FD3A95F6012A153B051CF4888136
:100A90008C30C4F180819181049680349C4908F4A3
:100AA00073C0F60180819181049670C0888198019D
:100AB000280F311D87FD3A952A153B05DCF6888104
:100AC000A801480F511D87FD5A95FA01EE0FFF1F2F
:100AD000E40FF51FE35DFB4F808186FFCBCF88815C
:100AE000F801E80FF11D87FDFA95CF01EE0FFF1F0A
:100AF000E80FF91FE35DFB4F808160E08F730E9478
:100B0000A301B8CF808191812881A801420F511D96
:100B100027FD5A959A01FA01EE0FFF1FE20FF31F0E
:100B2000E35DFB4F21813281820F931FF701918397
:100B3000808388819801280F311D87FD3A95F9013E
:100B4000EE0FFF1FE20FF31FE35DFB4F808186FF77
:100B500022C08881080F111D87FD1A95F801EE0F3C
:100B6000FF1FE00FF11FE35DFB4F808161E08F739A
:100B7000DF91CF911F910F91FF90EF90DF90CF9079
:100B8000BF90AF900C94A30180E49CE9F70191839E
:100B900080838FEF8883DF91CF911F910F91FF901A
:100BA000EF90DF90CF90BF90AF900895FC0101903F
:100BB0000020E9F73197AF01481B590BBC0180E9D0
:100BC00093E00C94E8038F929F92AF92BF920F93A1
:100BD0001F93CF93DF93CDB7DEB7A1970FB6F894ED
:100BE000DEBF0FBECDBF19A2423008F44AE08E012D
:100BF0000F5D1F4F842E912CB12CA12CA5019401C7
:100C00000E94990EE62FB901CA01EA30F4F4E05DC2
:100C1000D801EE938D01232B242B252B79F790E01F
:100C200080E0109719F0CD010E94D605A1960FB66D
:100C3000F894DEBF0FBECDBFDF91CF911F910F9112
:100C4000BF90AF909F908F900895E95CE1CFCF93D4
:100C5000DF930E94D605EC0189E192E00E94D6055F
:100C60008C0F9D1FDF91CF9108950C94D60561E004
:100C700083E00E942F0261E083E00E94A3018CE1E7
:100C800092E00E94350688E292E00C9427064F928B
:100C90005F926F927F928F929F92AF92BF92CF920C
:100CA000DF92EF92FF920F931F93CF936B017C0122
:100CB000742EAC019B010E94D50F882399F08BE321
:100CC00092E0CF911F910F91FF90EF90DF90CF9026
:100CD000BF90AF909F908F907F906F905F904F905C
:100CE0000C94D60546015701E894B7F82FEF3FEF73
:100CF0004FE75FE7C501B4010E94D50F81110DC018
:100D00002FEF3FEF4FE75FE7C501B4010E94750D7C
:100D100018161CF48FE392E0D4CF2FEF3FEF4FE78C
:100D20005FE4C701B6010E94D00F18161CF483E4DB
:100D300092E0C7CF2FEF3FEF4FE75FECC701B6015F
:100D40000E94750D87FDF3CF20E030E0A901C701B7
:100D5000B6010E94750D10E000E087FF0AC06DE249
:100D600080E993E00E947E048C01F7FAF094F7F892
:100D7000F094C0E060E070E080E09FE37C1641F01A
:100D800020E030E040E251E40E94280FCF5FF6CF30
:100D9000A70196010E94BC0E2B013C010E94A10FED
:100DA0004B015C014AE00E94E3057C01E00EF11E6C
:100DB000CC23C1F1C501B4010E947A0D9B01AC01A5
:100DC000C301B2010E94BB0E4B015C016EE280E9DF
:100DD00093E00E947E04E80EF91EC15018F120E055
:100DE00030E040E251E4C501B4010E94DB0D2B016B
:100DF0003C010E94A10F4B01B12CA12C4AE0C5017E
:100E0000B4010E94E305E80EF91EC501B4010E9479
:100E10007A0D9B01AC01C301B2010E94BB0E4B01D4
:100E20005C01DBCFC701CF911F910F91FF90EF9035
:100E3000DF90CF90BF90AF909F908F907F906F90FA
:100E40005F904F900895CF93DF93FC0144815581CB
:100E50006081718180E993E00E94E803EC0189E1FF
:100E600092E00E94D6058C0F9D1FDF91CF910895CF
:100E70000F931F93CF93DF93EC01888199810097A3
:100E800059F02A813B812617370730F081E0DF9146
:100E9000CF911F910F9108958B016F5F7F4F0E943B
:100EA0001311009759F0998388831B830A832C813F
:100EB0003D81232B59F7FC011082E8CF80E0E7CF7A
:100EC000EF92FF920F931F93CF93DF93EC017B017F
:100ED000FB0101900020E9F731978F01061B170BEA
:100EE000B8010E94380728813981811113C021156A
:100EF000310519F0C9010E948A10198218821D82D9
:100F00001C821B821A82DF91CF911F910F91FF905B
:100F1000EF9008951D830C83B701C901DF91CF9134
:100F20001F910F91FF90EF900C94FD111F920F9263
:100F30000FB60F9211242F933F938F939F93AF93EC
:100F4000BF9380918C0390918D03A0918E03B091FB
:100F50008F033091870323E0230F2D3758F5019637
:100F6000A11DB11D2093870380938C0390938D0363
:100F7000A0938E03B0938F0380918803909189038F
:100F8000A0918A03B0918B030196A11DB11D80939E
:100F9000880390938903A0938A03B0938B03BF9136
:100FA000AF919F918F913F912F910F900FBE0F9016
:100FB0001F90189526E8230F0296A11DB11DD2CFD0
:100FC0001F920F920FB60F9211240BB60F922F9310
:100FD0003F934F935F936F937F938F939F93AF93C1
:100FE000BF93EF93FF9380E993E00E945C04FF912D
:100FF000EF91BF91AF919F918F917F916F915F9191
:101000004F913F912F910F900BBE0F900FBE0F90FD
:101010001F9018951F920F920FB60F9211240BB6C6
:101020000F922F938F939F93EF93FF93E091A003E1
:10103000F091A1038081E091A603F091A70382FDC6
:101040001DC090818091A9038F5F8F732091AA03A7
:10105000821741F0E091A903F0E0E057FC4F958F33
:101060008093A903FF91EF919F918F912F910F9002
:101070000BBE0F900FBE0F901F9018958081F2CF7E
:101080001F920F920FB60F9211240BB60F922F934F
:101090003F934F935F936F937F938F939F93AF9300
:1010A000BF93EF93FF9348E251E064E271E090E078
:1010B00080E00E941C05FF91EF91BF91AF919F913D
:1010C0008F917F916F915F914F913F912F910F90F1
:1010D0000BBE0F900FBE0F901F9018951F920F928E
:1010E0000FB60F9211240BB60F922F933F934F938D
:1010F0005F936F937F938F939F93AF93BF93EF9380
:10110000FF9348EA50E064EA70E083E090E00E94D8
:101110001C05FF91EF91BF91AF919F918F917F91AE
:101120006F915F914F913F912F910F900BBE0F9058
:101130000FBE0F901F9018951F920F920FB60F922F
:1011400011240BB60F922F933F934F935F936F939E
:101150007F938F939F93AF93BF93EF93FF9348E950
:1011600050E064E970E082E090E00E941C05FF918D
:10117000EF91BF91AF919F918F917F916F915F910F
:101180004F913F912F910F900BBE0F900FBE0F907C
:101190001F9018951F920F920FB60F9211240BB645
:1011A0000F922F933F934F935F936F937F938F9300
:1011B0009F93AF93BF93EF93FF9348E850E064E8A9
:1011C00070E081E090E00E941C05FF91EF91BF91DB
:1011D000AF919F918F917F916F915F914F913F91CF
:1011E0002F910F900BBE0F900FBE0F901F90189570
:1011F000CF92DF92EF92FF920F931F93E82FF92F78
:1012000005C0015011092109310961F1908196232E
:101210009417B9F305C0015011092109310911F1E1
:10122000908196239413F7CFC12CD12CE12CF12C73
:101230000AC08FEFC81AD80AE80AF80A0C151D056B
:101240002E053F0579F080818623841791F36C2D5C
:101250007D2D8E2D9F2D1F910F91FF90EF90DF9090
:10126000CF90089560E070E080E090E01F910F91D2
:10127000FF90EF90DF90CF900895CF93DF93EC0134
:10128000198218821B821A821D821C8270E060E023
:101290000E9438072881398181110FC0211531053D
:1012A00019F0C9010E948A10198218821D821C82BD
:1012B0001B821A82DF91CF9108951D821C826BE1FF
:1012C00072E0C901DF91CF910C94FD11109293034C
:1012D0001092920388EE93E0A0E0B0E08093940334
:1012E00090939503A0939603B09397038BE092E0BD
:1012F000909391038093900385EC90E090939D03ED
:1013000080939C0384EC90E090939F0380939E03D2
:1013100080EC90E09093A1038093A00381EC90E097
:101320009093A3038093A20382EC90E09093A50393
:101330008093A40386EC90E09093A7038093A60388
:101340001092A9031092AA031092AB031092AC035F
:101350008AED94E00E943D0989E38093CC048BE000
:101360008093CD04EFE5F2E0E491E093CE04E9E16F
:10137000F2E0E491E093CF0480E89EE3A0E0B0E0E7
:101380008093D4049093D504A093D604B093D7044B
:1013900081EC94E00E943D098091BD04803398F473
:1013A00091E0980F9093BD048093BE0490E0FC01FF
:1013B000EE0FFF1FE80FF91FE35DFB4F88EB9BE08B
:1013C0009283818308958FEF8093BE04089578946B
:1013D00084B5826084BD84B5816084BD85B582603A
:1013E00085BD85B5816085BD80916E0081608093EB
:1013F0006E00109281008091810082608093810054
:101400008091810081608093810080918000816063
:10141000809380008091B10084608093B1008091BE
:10142000B00081608093B0008091910082608093D1
:101430009100809191008160809391008091900053
:101440008160809390008091A10082608093A100D0
:101450008091A10081608093A1008091A0008160B3
:101460008093A0008091210182608093210180916E
:10147000210181608093210180912001816080930E
:10148000200180917A00846080937A0080917A00B4
:10149000826080937A0080917A00816080937A00E4
:1014A00080917A00806880937A001092C100E09168
:1014B000A003F091A10382E08083E0919C03F0916E
:1014C0009D031082E0919E03F0919F038FEC808337
:1014D0001092A803E091A403F091A50386E0808315
:1014E000E091A203F091A303808180618083E09169
:1014F000A203F091A303808188608083E091A2031E
:10150000F091A303808180688083E091A203F09131
:10151000A30380818F7D808360E087E30E942F0298
:1015200060E088E30E942F0262E08091CC040E9478
:101530002F022FB7F89480918C0390918D03A09186
:101540008E03B0918F032FBF805D9740A109B10931
:101550008093D0049093D104A093D204B093D30489
:1015600087E38093D90461E08BE30E942F0260E05F
:101570008AE30E942F0261E08CE30E942F0261E067
:101580008CE30E94A30161E083E00E942F020E948D
:1015900037068091BE04803308F052C061E08DE3CD
:1015A0000E942F028091BE04282F30E0F901EE0F37
:1015B000FF1FE20FF31FE35DFB4F9081907C9D6363
:1015C00090831092BF041092C0042CE0622F0E94FE
:1015D000DA0F829FB001112430E020E0AB01420F0E
:1015E000531FFA01EE0FFF1FE40FF51FE35DFB4FE2
:1015F000908196FD17C02F5F3F4F2C30310571F75A
:10160000813009F0C4C01092800082E08093810094
:101610001092850010928400B19A80916F008260D0
:1016200080936F00E091BE048E2F90E0FC01EE0FDE
:10163000FF1FE80FF91FE35DFB4F8081806480830B
:10164000E091BE04E033E0F42091BF0488E890E02C
:10165000821B910927FD939553E0880F991F5A9596
:10166000E1F704974FB7F8942E2F30E0F901EE0F11
:10167000FF1FE20FF31FE35DFB4F928381834FBF98
:1016800099249394C3E0D0E023E2E22EF12C30E6DB
:10169000C32E32E0D32E4AE1A42E42E0B42E87E3DB
:1016A0000E946B02BC01990F880B990B0E947C0D64
:1016B0002AE037ED43E25CE30E94DB0D60937803A0
:1016C0007093790380937A0390937B0387E492E08D
:1016D0000E943506609178037091790380917A03B6
:1016E00090917B0342E00E94470689E192E00E94CC
:1016F000D60588E30E946B029093800380937F035A
:1017000080E592E00E94350640907F035090800370
:10171000052C000C660877084AE0C301B20177FE89
:101720000DC06DE280E993E00E947E046627772772
:10173000CB0164197509860997094AE00E94E305FF
:1017400089E192E00E94D60580917F039091800309
:10175000843691050CF447C080917D0390917E03FF
:10176000019690937E0380937D0380917D039091F9
:101770007E038430910509F452C0089709F46FC0C4
:101780006BE172E08AED94E00E94600756C08230FF
:1017900061F4109290008093910010929500109245
:1017A000940088BB809371003DCF833069F4109220
:1017B000A00082E08093A1001092A5001092A400E6
:1017C00089BB809372002ECF81112CCF1092200103
:1017D00082E08093210110922501109224018ABB9E
:1017E000809373001FCF80917C03882309F4BDCFC1
:1017F00010927C038CE192E00E94350689E592E02C
:101800000E9427066BE172E08AED94E00E94600777
:1018100010927E0310927D030E943706A6CF6CE7DC
:1018200072E08AED94E00E9460078CE192E00E94F1
:1018300035068AED94E00E9423070E94D90288238E
:1018400049F08091CD048C3009F4ECC048F58B3020
:1018500009F43FC060E070E080EC9FE762C065EB98
:1018600072E08AED94E00E9460078CE192E00E94B1
:1018700035068AED94E00E94230790927C0361E094
:1018800083E00E942F0260E083E00E94A3018CE1CC
:1018900092E00E94350682EE92E00E942706CDCFAC
:1018A00085518230B8F61091C904612F70E0762F0F
:1018B000662766277F778091CA04682B90E080E0D6
:1018C0000E947A0D2DEC3CEC4CEC5DE30E94DB0DAC
:1018D000C5C06091C90470E090E080E00E947A0D7C
:1018E0002B013C011091CA0417FF0AC0AC019B01F7
:1018F00060E070E080E89FEB0E94BB0E2B013C0192
:101900001F70612F70E090E080E00E947C0D2DEC54
:101910003CEC4CEC5DE30E94DB0DA30192010E94C4
:10192000BC0E609381037093820380938303909332
:10193000840387EF92E00E943506609181037091E5
:101940008203809183039091840342E00E944706C2
:1019500089E192E00E94D60560E08BE30E94A3013A
:10196000CE010197F1F761E08BE30E94A301C7016B
:101970000197F1F760E08BE30E94A301F601649107
:10198000F5018491E82FF0E0EE0FFF1FEA53FE4FC0
:101990008591949100E412E42FE030E0462F0E94FC
:1019A000F808611571058105910529F06F5F7F4F7A
:1019B0008F4F9F4F9F70072E000C880B990B0E9432
:1019C0007C0D26E933E44BE05DE30E94DB0D20E073
:1019D00030E040E05FE30E94DB0D0E949A0F6B3025
:1019E00071050CF03FC06BE172E081EC94E00E9465
:1019F000600710928603109285038091000288236D
:101A000051F0809185039091860384309105A1F176
:101A1000089709F448C06BE172E081EC94E00E9401
:101A2000600738C01091C904612F70E090E080E039
:101A30000E947A0D2B013C016091CA046F7070E026
:101A400090E080E00E947C0D2DEC3CEC4CEC5DE3E2
:101A50000E94DB0DA30192010E94BC0E17FF61CF13
:101A600090585FCF80918503909186030196909363
:101A7000860380938503C1CF68E073E081EC94E036
:101A80000E9460078CE192E00E94350681EC94E0B0
:101A90000E94230768E873E180E090E00E94A702BB
:101AA0000E94EB04FCCD60E08CE30E94A301109245
:101AB00000028CE192E00E94350681E493E00E94EE
:101AC00027066DE473E0DACF8091C1049091C204DF
:101AD000009711F00E948A108091DA049091DB0443
:101AE000009711F00C948A1008950E94B70D08F425
:101AF00081E00895E89409C097FB3EF490958095A5
:101B0000709561957F4F8F4F9F4F9923A9F0F92FC3
:101B100096E9BB279395F695879577956795B79541
:101B2000F111F8CFFAF4BB0F11F460FF1BC06F5F27
:101B30007F4F8F4F9F4F16C0882311F096E911C039
:101B4000772321F09EE8872F762F05C0662371F05A
:101B500096E8862F70E060E02AF09A95660F771F6E
:101B6000881FDAF7880F9695879597F90895990F4A
:101B70000008550FAA0BE0E8FEEF16161706E80757
:101B8000F907C0F012161306E407F50798F0621B78
:101B9000730B840B950B39F40A2661F0232B242B4D
:101BA000252B21F408950A2609F4A140A6958FEF6C
:101BB000811D811D08950E94EE0D0C945F0E0E9400
:101BC000510E38F00E94580E20F0952311F00C941D
:101BD000480E0C944E0E11240C94930E0E94700E1D
:101BE00070F3959FC1F3950F50E0551F629FF00170
:101BF000729FBB27F00DB11D639FAA27F00DB11D89
:101C0000AA1F649F6627B00DA11D661F829F222711
:101C1000B00DA11D621F739FB00DA11D621F839F98
:101C2000A00D611D221F749F3327A00D611D231F6E
:101C3000849F600D211D822F762F6A2F11249F57BC
:101C400050409AF0F1F088234AF0EE0FFF1FBB1FBF
:101C5000661F771F881F91505040A9F79E3F51057E
:101C600080F00C94480E0C94930E5F3FE4F3983E82
:101C7000D4F3869577956795B795F795E7959F5F28
:101C8000C1F7FE2B880F911D9695879597F90895BA
:101C900097F99F6780E870E060E008959FEF80EC1F
:101CA000089500240A9416161706180609060895C2
:101CB00000240A9412161306140605060895092E28
:101CC0000394000C11F4882352F0BB0F40F4BF2B97
:101CD00011F460FF04C06F5F7F4F8F4F9F4F0895D7
:101CE00057FD9058440F551F59F05F3F71F04795CD
:101CF000880F97FB991F61F09F3F79F087950895B2
:101D0000121613061406551FF2CF4695F1DF08C0D0
:101D1000161617061806991FF1CF869571056105ED
:101D200008940895E894BB2766277727CB0197F995
:101D30000895A1E21A2EAA1BBB1BFD010DC0AA1F0C
:101D4000BB1FEE1FFF1FA217B307E407F50720F024
:101D5000A21BB30BE40BF50B661F771F881F991F9F
:101D60001A9469F760957095809590959B01AC01E8
:101D7000BD01CF0108955058BB27AA270E94D30E5A
:101D80000C945F0E0E94510E38F00E94580E20F005
:101D900039F49F3F19F426F40C944E0E0EF4E0959E
:101DA000E7FB0C94480EE92F0E94700E58F3BA1707
:101DB000620773078407950720F079F4A6F50C9461
:101DC000920E0EF4E0950B2EBA2FA02D0B01B90147
:101DD00090010C01CA01A0011124FF27591B99F0A1
:101DE000593F50F4503E68F11A16F040A22F232FAD
:101DF000342F4427585FF3CF469537952795A795FD
:101E0000F0405395C9F77EF41F16BA0B620B730BA3
:101E1000840BBAF09150A1F0FF0FBB1F661F771F14
:101E2000881FC2F70EC0BA0F621F731F841F48F4C9
:101E3000879577956795B795F7959E3F08F0B0CF52
:101E40009395880F08F09927EE0F97958795089539
:101E50000E943C0F0C945F0E0E94580E58F00E9496
:101E6000510E40F029F45F3F29F00C94480E5111B7
:101E70000C94930E0C944E0E0E94700E68F39923EE
:101E8000B1F3552391F3951B550BBB27AA27621776
:101E90007307840738F09F5F5F4F220F331F441F83
:101EA000AA1FA9F335D00E2E3AF0E0E832D09150B7
:101EB0005040E695001CCAF72BD0FE2F29D0660FA4
:101EC000771F881FBB1F261737074807AB07B0E8E7
:101ED00009F0BB0B802DBF01FF2793585F4F3AF0ED
:101EE0009E3F510578F00C94480E0C94930E5F3F82
:101EF000E4F3983ED4F3869577956795B795F79573
:101F00009F5FC9F7880F911D9695879597F908955A
:101F1000E1E0660F771F881FBB1F621773078407F6
:101F2000BA0720F0621B730B840BBA0BEE1F88F705
:101F3000E09508950E94A10F6894B1110C94930E3E
:101F400008950E94780E88F09F5798F0B92F99272E
:101F5000B751B0F0E1F0660F771F881F991F1AF094
:101F6000BA95C9F714C0B13091F00E94920EB1E059
:101F700008950C94920E672F782F8827B85F39F058
:101F8000B93FCCF3869577956795B395D9F73EF42D
:101F900090958095709561957F4F8F4F9F4F0895D5
:101FA0000E94B70D08F48FEF08950E94B70D880BBB
:101FB000990B0895991B79E004C0991F961708F0B2
:101FC000961B881F7A95C9F780950895EE0FFF1F1D
:101FD000881F8BBF0790F691E02D19940F931F93E4
:101FE000CF93DF938230910510F482E090E0E0918E
:101FF000E204F091E30430E020E0B0E0A0E03097AC
:1020000099F42115310509F44AC0281B390B2430F5
:102010003105D8F58A819B816115710589F1FB0134
:1020200093838283FE0111C040815181028113811B
:1020300048175907E0F04817590799F4109761F0CD
:1020400012960C93129713961C933296CF01DF9140
:10205000CF911F910F9108950093E2041093E30430
:10206000F4CF2115310551F04217530738F0A9017B
:10207000DB019A01BD01DF01F801C1CFEF01F9CF0A
:102080009093E3048093E204CDCFFE01E20FF31FAF
:10209000819391932250310939832883D7CF20919E
:1020A000E0043091E104232B41F4209103023091AC
:1020B00004023093E1042093E00420910102309166
:1020C00002022115310541F42DB73EB740910502BA
:1020D00050910602241B350BE091E004F091E104DD
:1020E000E217F307A0F42E1B3F0B2817390778F0EF
:1020F000AC014E5F5F4F2417350748F04E0F5F1F4E
:102100005093E1044093E004819391939FCFF0E0DA
:10211000E0E09CCFCF93DF930097E9F0FC0132978A
:1021200013821282A091E204B091E304ED0130E049
:1021300020E01097A1F420813181820F931F20911C
:10214000E0043091E1042817390709F061C0F093E9
:10215000E104E093E004DF91CF910895EA01CE1706
:10216000DF07E8F54A815B819E0141155105B1F712
:10217000E901FB83EA8349915991C40FD51FEC17FC
:10218000FD0761F4808191810296840F951FE9011A
:1021900099838883828193819B838A83F0E0E0E046
:1021A00012968D919C9113970097B9F52D913C91C2
:1021B0001197CD010296820F931F2091E004309178
:1021C000E1042817390739F6309751F51092E304E6
:1021D0001092E204B093E104A093E004BCCFD38357
:1021E000C28340815181840F951FC817D90761F4BC
:1021F0004E5F5F4F88819981480F591F51834083FB
:102200008A819B81938382832115310509F0B0CFA8
:10221000F093E304E093E2049ECFFD01DC01C0CF24
:1022200013821282D7CF4F925F926F927F928F92DA
:102230009F92AF92BF92CF92DF92EF92FF920F9355
:102240001F93CF93DF938C01009799F4CB01DF911B
:10225000CF911F910F91FF90EF90DF90CF90BF90A3
:10226000AF909F908F907F906F905F904F900C9465
:10227000EE0FFC01E60FF71F9C0122503109E21717
:10228000F30708F4AEC0D901CD91DC911197C617C0
:10229000D70720F1C530D10578F0CE010497861715
:1022A000970750F0C61BD70B2297C193D1936D931C
:1022B0007C93CF010E948A10C801DF91CF911F91BA
:1022C0000F91FF90EF90DF90CF90BF90AF909F90D5
:1022D0008F907F906F905F904F9008955B01AC1A44
:1022E000BD0A4C018C0E9D1EA091E204B091E30446
:1022F000512C412CF12CE12C109731F58091E00408
:102300009091E1048815990509F05CC046165706BE
:1023100008F058C08091010290910202009741F4A8
:102320008DB79EB74091050250910602841B950B14
:10233000E817F90708F055C0F093E104E093E004D2
:10234000F90171836083B8CF8D919C91119712969A
:102350006C90129713967C901397A815B90559F5B0
:102360006C0142E0C40ED11CCA14DB0420F1AC01A4
:102370004A195B09DA011296159780F0628273821E
:1023800051834083D9016D937C93E114F10471F082
:10239000D7011396FC93EE9312978ECF22968C0F53
:1023A0009D1FF90191838083F301EFCFF093E30444
:1023B000E093E20481CF4816590608F42C017D0110
:1023C000D3019ACFCB010E94EE0F7C01009749F018
:1023D000AE01B8010E94F411C8010E948A10870161
:1023E0006BCF10E000E068CFFB01DC0102C0019080
:1023F0000D9241505040D8F70895FB01DC01019047
:102400000D920020E1F7089511E0C7E3D1E000E06C
:1024100006C0802FFE010E94E60F2196011DC833E1
:0C242000D10780E00807A9F7F894FFCF6F
:10242C00010000E4048000000000007E04E80315B5
:10243C0004CB044604240438040D0A0047375F4DCE
:10244C006573616A653A200056656E74696C6164E7
:10245C006F72206170616761646F006E616E0069FC
:10246C006E66006F76660047375F4C757A3A2000CF
:10247C0047375F434F323A20004C6120636F6E63E5
:10248C00656E7472616369C3B36E20646520434FDB
:10249C0032206573206E6F726D616C004C61206828
:1024AC0061626974616369C3B36E206375656E7430
:1024BC006120636F6E20756E612063616C6964616D
:1024CC00642064652061697265206465666963696E
:1024DC00656E7465006C696D7069657A6120646500
:1024EC006C2061697265206465206C612068616292
:1024FC006974616369C3B36E2061637469766164E6
:10250C006F0056656E74696C61646F7220656E63E2
:10251C00656E6469646F0047375F54656D706572F2
:10252C0061747572613A20004C6120686162697453
:10253C00616369C3B36E20657374C3A120696C7544
:10254C006D696E616461207065726F206E6F2068BA
:10255C006179206E6164696520656E20656C6C61C3
:10256C00004C757A2061706167616461005365206D
:10257C006170616761726120656C20736973746549
:10258C006D6120646520696C756D696E616369C3EA
:04259C00B36E00001A
:00000001FF
