:100000000C9438010C9469010C9469010C946901F9
:100010000C9469010C9469010C9469010C946901B8
:100020000C9469010C9469010C9469010C946901A8
:100030000C9469010C9469010C9469010C94690198
:100040000C9469010C9469010C9469010C94690188
:100050000C9469010C9469010C9469010C94B30E21
:100060000C9469010C94870F0C945D0F0C9469013A
:100070000C9469010C9469010C9469010C94690158
:100080000C9469010C9469010C9469010C94690148
:100090000C94270F0C94FD0E0C9469010C946901CB
:1000A0000C9469010C9469010C9469010C94690128
:1000B0000C9469010C9469010C9469010C94690118
:1000C0000C9469010C9469010C9469010C94690108
:1000D0000C9469010C9469010C9469010C946901F8
:1000E0000C9469010C9484020C94B7040C9446059A
:1000F0000C9449020C9470020C9495040C948604A0
:100100000C9402100C9488020C94F9040C94590479
:100110000C945E020C9468020C9458020C94051521
:100120000C9432020C944D020C9462020C94550211
:100130000C947A020C946C020C9476020C94A90430
:100140000C9437020C947E020C94510200002100A2
:10015000240027002A002D00300033000101000098
:10016000040107010A0100002200250028002B00DD
:100170002E003100340002010000050108010B01CE
:1001800000000A0B02090C0D0E0807030401000011
:10019000000000000000000000000000000000005F
:1001A000000000000000000000000000121110001C
:1001B000000000000000000000000000000000003F
:1001C000000000000000000020002300260029009D
:1001D0002C002F003200000100000301060109017C
:1001E00005050505070508080808020202020A0AB3
:1001F00008080404040401010101010101010303D1
:10020000030303030303040707070C0C0C0C0C0C7B
:100210000C0C0202020206060606060606060B0B78
:100220000B0B0B0B0B0B01021020200808102040B9
:1002300010204080020102010804020101020408AA
:100240001020408080402010080402018004020138
:100250008040201008040201080402010102040881
:100260001020408001020408102040800210051573
:1002700011241FBECFEFD1E2DEBFCDBF00E00CBF27
:1002800026E0A4E8B5E001C01D92AA3FB207E1F75D
:1002900015E0A0E0B2E0E6E2F3E300E00BBF02C04D
:1002A00007900D92A438B107D9F711E0C7E3D1E068
:1002B00000E006C021970109802FFE010E943E1731
:1002C000C633D10780E00807A9F70E9491100C946B
:1002D00081190C9400008091D5069091D606DC011E
:1002E000ED91FC910084F185E02D19951816190601
:1002F00064F48091D5069091D606DC01ED91FC91D5
:100300000284F385E02D1995E6CF0895CF93DF930E
:10031000EC019A01AB01E889F98982E0808321151B
:1003200081EE38074105510581F160E079E08DE308
:1003300090E00E941C17215031094109510956953E
:10034000479537952795EC85FD851082EE85FF85CD
:100350002083188EEC89FD8986E08083EA89FB89F9
:10036000808180618083EA89FB89808188608083C5
:10037000EA89FB89808180688083EA89FB898081A2
:100380008F7D8083DF91CF910895E889F98910826C
:1003900020E1D9CFCF92DF92EF92FF92CF93DF93FC
:1003A000B091E406A0E08111AB2F8091E50690E0CA
:1003B000880F991FAC014A535E4FC090EA06D09057
:1003C000EB06E090EC06F090ED0630E020E0FA015C
:1003D000C591D491E881B90190E080E0EB23EA1364
:1003E0000AC02F5F3F4F6C157D058E059F0578F382
:1003F0006FEF7FEFCB01DF91CF91FF90EF90DF9018
:10040000CF900895282F30E0F901E058FE4F9491E5
:10041000F901EA5DFD4F449120523E4FF9012491CC
:10042000222309F435C0992311F191509231F8F447
:10043000E92FF0E08827E05EFD4F8F4F0C943E17C8
:1004400051025502320249024D02370258025E0241
:10045000620268026C02700276027A0237027E0241
:1004600084028802809180008F7780938000E22F41
:10047000F0E0EE0FFF1FEA59FE4FA591B4918FB740
:10048000F894EC91611148C040954E234C938FBF76
:100490000895809180008F7DE8CF80918000877FD4
:1004A000E4CF84B58F7784BDE2CF84B58F7DFBCF59
:1004B0008091B0008F778093B000D9CF8091B00049
:1004C0008F7DF9CF809190008F7780939000CFCF70
:1004D000809190008F7DF9CF80919000877FF5CF3C
:1004E0008091A0008F778093A000C1CF8091A00061
:1004F0008F7DF9CF8091A000877FF5CF809120017B
:100500008F7780932001B3CF809120018F7DF9CF29
:1005100080912001877FF5CF4E2BB8CFCF93DF930B
:1005200090E0FC01EA5DFD4F249180529E4FFC015A
:1005300084918823C9F090E0880F991FFC01E45B47
:10054000FE4FA591B491FC01EA59FE4FC591D4919B
:1005500061110DC09FB7F8948C91209582238C93E4
:100560008881282328839FBFDF91CF91089562302F
:1005700051F49FB7F8943C91822F809583238C93FC
:10058000E8812E2BEFCF8FB7F894EC912E2B2C9384
:100590008FBFEACF90917B00977F90937B0086532B
:1005A000806480937C0080917A00806480937A00DC
:1005B00080917A0086FDFCCF80917800909179003F
:1005C00008953FB7F8948091970590919805A09170
:1005D0009905B0919A0526B5A89B05C02F3F19F043
:1005E0000196A11DB11D3FBFBA2FA92F982F8827B3
:1005F000BC01CD01620F711D811D911D42E0660F8E
:10060000771F881F991F4A95D1F708958F929F925F
:10061000AF92BF92CF92DF92EF92FF924B015C01BB
:100620000E94E1026B017C010E94E1026C197D09CC
:100630008E099F09683E734081059105A8F321E06A
:10064000821A9108A108B10888EEC80E83E0D81E6E
:10065000E11CF11C81149104A104B10429F7FF905D
:10066000EF90DF90CF90BF90AF909F908F900895C4
:100670002FB7F8946091930570919405809195053A
:10068000909196052FBF0895CF92DF92EF92FF923F
:100690000F931F93CF93DF93CDB7DEB7C054D140F4
:1006A0000FB6F894DEBF0FBECDBF0E943803009195
:1006B000E6061091E7062091E8063091E9066B0105
:1006C0007C01C01AD10AE20AF30A97018601003DB3
:1006D00017402105310590F48091EE06C05CDE4F95
:1006E0000FB6F894DEBF0FBECDBFDF91CF911F9143
:1006F0000F91FF90EF90DF90CF9008956093E60602
:100700007093E7068093E8069093E9061092E1065D
:100710001092E0061092DF061092DE061092DD06BF
:1007200062E08091E2060E948E0261E070E080E06B
:1007300090E00E94060361E08091E2060E948E0232
:1007400060E08091E2060E9402028091E3068551FA
:10075000823020F58BE291E10197F1F762E0809120
:10076000E2060E948E028091EF0690E082309105B1
:1007700038F0880F991F880F991F05970197F1F797
:10078000F89480E00E94CA016F3F7F4F8F4F9F4FC8
:1007900061F41092EE06789480E0A0CF64E170E0FE
:1007A00080E090E00E940603D9CF81E00E94CA0158
:1007B0006F3F7F4F8F4F9F4F61F38E010F5F1F4F32
:1007C0006E012FEBC21A2EEFD20A780180E00E9450
:1007D000CA01F701608371838283938381E00E9461
:1007E000CA01F7016483758386839783F8E0EF0E6F
:1007F000F11CEC14FD0451F7789430E020E0F8018E
:10080000C080D180E280F380448155816681778108
:10081000FFEFCF16DF06EF06FF0631F04F3F8FEFF9
:1008200058076807780719F41092EE06B5CFF9015A
:1008300083E0F595E7958A95E1F7E352F94F8081DA
:10084000880FC416D506E606F70610F180832F5FE1
:100850003F4F085F1F4F2832310589F64091E1066E
:100860002091DD068091DE06280F3327331F80910B
:10087000DF06280F311D8091E006820F932F911D16
:1008800099274817190681F681E08093EE0626CF56
:100890008160DCCF0895DB0114964D915C91159732
:1008A0006D917C91DC01ED91FC910280F381E02D52
:1008B0001994AF92BF92CF92DF92EF92FF920F9373
:1008C0001F93CF93DF936C017B018B01040F151FE6
:1008D000EB015E01AE18BF08C017D10759F069914E
:1008E000D601ED91FC910190F081E02DC6011995A2
:1008F000892B79F7C501DF91CF911F910F91FF905F
:10090000EF90DF90CF90BF90AF900895FC01538D92
:10091000448D252F30E0842F90E0821B930B5417D9
:1009200010F0CF96089501970895FC01918D828D66
:10093000981761F0A28DAE0FBF2FB11D5D968C91FF
:10094000928D9F5F9F73928F90E008958FEF9FEF3E
:100950000895FC01918D828D981731F0828DE80FFA
:10096000F11D858D90E008958FEF9FEF0895FC01B4
:10097000918D228D892F90E0805C9F4F821B910981
:100980008F739927089588E396E00E94B70421E0C9
:10099000892B09F420E0822F08958BE995E00E94CD
:1009A000B70421E0892B09F420E0822F0895FC018F
:1009B000A48DA80FB92FB11DA35ABF4F2C91848DC0
:1009C00090E001968F739927848FA689B7892C931D
:1009D000A089B1898C91837080648C93938D848D70
:1009E000981306C00288F389E02D80818F7D808373
:1009F0000895EF92FF920F931F93CF93DF93EC0133
:100A000081E0888F9B8D8C8D98131AC0E889F989B5
:100A1000808185FF15C09FB7F894EE89FF896083B8
:100A2000E889F98980818370806480839FBF81E039
:100A300090E0DF91CF911F910F91FF90EF9008957B
:100A4000F62E0B8D10E00F5F1F4F0F731127E02E56
:100A50008C8D8E110CC00FB607FCFACFE889F9898E
:100A6000808185FFF5CFCE010E94D704F1CFEB8DB9
:100A7000EC0FFD2FF11DE35AFF4FF0829FB7F89462
:100A80000B8FEA89FB8980818062CFCFCF93DF9380
:100A9000EC01888D8823B9F0AA89BB89E889F98996
:100AA0008C9185FD03C0808186FD0DC00FB607FCCB
:100AB000F7CF8C9185FFF2CF808185FFEDCFCE01FE
:100AC0000E94D704E9CFDF91CF91089580E090E0B4
:100AD000892B29F00E94CD0481110E94000080E042
:100AE00090E0892B29F00E94C30481110E9400002C
:100AF00080E090E0892B49F080E090E0892B29F09C
:100B00000E94000081110E94000080E090E0892B8B
:100B100049F080E090E0892B29F00E9400008111CB
:100B20000C9400000895FB0101900020E9F7319733
:100B3000AF01461B570BDC01ED91FC910280F38164
:100B4000E02D1994CF93DF93BC018BE995E00E94CF
:100B50004B04EC0166E373E08BE995E00E9493059A
:100B60008C0F9D1FDF91CF9108958F929F92AF922E
:100B7000BF92EF92FF920F931F93CF93DF93CDB766
:100B8000DEB7A1970FB6F894DEBF0FBECDBF7C01D4
:100B9000FA01CB0119A2223008F42AE08E010F5D80
:100BA0001F4F822E912CB12CA12CBF01A5019401C5
:100BB0000E941C17F901CA016A300CF5605DD8016A
:100BC0006E938D01232B242B252B79F790E080E069
:100BD000109721F0BD01C7010E949305A1960FB6A1
:100BE000F894DEBF0FBECDBFDF91CF911F910F9163
:100BF000FF90EF90BF90AF909F908F900895695CA9
:100C0000DECF0F931F93CF93DF938C01D0E0C0E032
:100C10006115710519F00E949305EC0166E373E01C
:100C2000C8010E9493058C0F9D1FDF91CF911F91EA
:100C30000F9108950C949305FC0180819181009798
:100C400011F00C940D1560E070E0CB010895CF9386
:100C5000DF93DC0114962D913C911597232B79F0AD
:100C6000FB01CD91DC9160817181CE010E946719F9
:100C7000009729F08C1B9D0BDF91CF9108958FEF8A
:100C80009FEFFACF0F931F93CF93DF938C01EB016C
:100C9000FC01808191810097E1F068817981611583
:100CA0007105A9F0428153812C813D814217530780
:100CB00070F00E9460198C819D81F8019583848376
:100CC0001D821C82DF91CF911F910F9108950E9488
:100CD000E21788819981F801918380838A819B81C1
:100CE000938382838C819D8195838483198218826A
:100CF0001B821A82E5CFCF93DF93EC018881998123
:100D0000009711F00E94E217198218821D821C823E
:100D10001B821A82DF91CF910895FC01808191811D
:100D2000009711F00C94E21708950F931F93CF933F
:100D3000DF93EC0188819981009759F02A813B81EA
:100D40002617370730F081E0DF91CF911F910F9187
:100D500008958B016F5F7F4F0E946B18009759F0C9
:100D6000998388831B830A832C813D81232B59F728
:100D7000FC011082E8CF80E0E7CFEF92FF920F9363
:100D80001F93CF93DF936115710541F480E0DF91EC
:100D9000CF911F910F91FF90EF900895411551054C
:100DA000B1F07B01EC010C811D81040F151FB8010E
:100DB0000E949506882351F3288139818C819D8179
:100DC000B701820F931F0E9460191D830C8381E07D
:100DD000DECFCF93DF93EC01FB0101900020E9F718
:100DE0003197AF01461B570B0E94BD06811103C00E
:100DF000CE010E947B06CE01DF91CF910895EF9244
:100E0000FF920F931F93CF93DF9300D000D01F92D8
:100E10001F92CDB7DEB77C01CB014AE08E010F5F98
:100E20001F4FB8010E943415F80101900020E9F726
:100E30003197AF01401B510BB801C7010E94BD069D
:100E400028960FB6F894DEBF0FBECDBFDF91CF91CD
:100E50001F910F91FF90EF900895CF93DF931F9212
:100E60001F92CDB7DEB769831A8241E050E0BE0120
:100E70006F5F7F4F0E94BD060F900F90DF91CF9163
:100E800008956115710551F0FB0101900020E9F70B
:100E90003197AF01461B570B0C94BD0680E00895B7
:100EA000EF92FF920F931F93CF93DF93EC017B019F
:100EB0008A01BA010E94950681110BC0CE010E94E1
:100EC0007B06CE01DF91CF911F910F91FF90EF90A4
:100ED00008951D830C83B701888199810E94601950
:100EE000F0CFFB0101900020E9F73197AF01461BDD
:100EF000570B0C945007FB01DC0111961C921E92BB
:100F000013961C921E92129715961C921E9214977D
:100F10008617970749F0608171816115710521F08D
:100F2000448155810C9450070895FC011182108270
:100F300013821282158214826115710551F0FB0132
:100F400001900020E9F73197AF01461B570B0C9435
:100F5000500708954F925F926F927F928F929F9267
:100F6000AF92BF92CF92DF92EF92FF920F931F93B7
:100F7000CF93DF93EC015B014A012801390168E35B
:100F800073E00E9495070E9438036B017C010E9468
:100F900038036C197D098E099F096415750586054E
:100FA000970560F58091D5069091D606DC01ED910C
:100FB000FC910084F185E02D19951816190694F41A
:100FC0008091D5069091D606DC01ED91FC910284CA
:100FD000F385E02D1995882329F3682FCE010E940F
:100FE0002D07E0CFB501CE010E942706019631F40E
:100FF000B401CE010E942706019649F2CE01DF918D
:10100000CF911F910F91FF90EF90DF90CF90BF9005
:10101000AF909F908F907F906F905F904F900895CA
:101020008F929F92AF92BF92CF92DF92EF92FF92F8
:101030000F931F93CF93DF93EC018B0149015A016A
:1010400068E373E00E9495070E9438036B017C01FE
:101050000E9438036C197D098E099F09681579056E
:101060008A059B0530F58091D5069091D606DC0166
:10107000ED91FC910084F185E02D19951816190663
:1010800094F48091D5069091D606DC01ED91FC9107
:101090000284F385E02D1995882329F3682FCE016A
:1010A0000E942D07E0CFB801CE010E9427060196CD
:1010B00079F2CE01DF91CF911F910F91FF90EF90C8
:1010C000DF90CF90BF90AF909F908F9008950F9337
:1010D0001F93CF93DF93CDB7DEB7A4970FB6F894E5
:1010E000DEBF0FBECDBF8C01CE0149960E947B07AB
:1010F000B801CE014F960E947B0768E373E0CE01F2
:1011000043960E9495070E946B0169E172E080910D
:10111000D5069091D6060E941A06BE01615E7F4FE9
:101120008091D5069091D6060E944B0464E272E04D
:101130008091D5069091D6060E941A06BE01675E80
:101140007F4F8091D5069091D6060E944B0466E2AF
:1011500072E08091D5069091D6060E94010668E261
:1011600072E0CE0107960E94950769E873E0CE0110
:1011700001960E94950700E117E220E030E0AE0101
:10118000495F5F4FBE016F5F7F4FCE010D960E949A
:10119000AA07BE01635F7F4FCE0143960E944206BD
:1011A000CE010D960E948D06CE0101960E948D06FD
:1011B000CE0107960E948D0669E873E0CE01019684
:1011C0000E949507BE016F5F7F4FCE0143960E943C
:1011D00027068C01CE0101960E948D06CE01439612
:1011E0000E948D06CE014F960E948D06CE01499633
:1011F0000E948D0681E00F3F1F4F09F480E0A49606
:101200000FB6F894DEBF0FBECDBFDF91CF911F9117
:101210000F910895CF92DF92EF92FF920F931F9359
:10122000CF93DF93CDB7DEB762970FB6F894DEBFEA
:101230000FBECDBF8C016A017B0168E373E0CE0174
:101240000D960E949507B801CE0107960E947B0774
:10125000A7019601BE01695F7F4FCE0101960E94F2
:101260001008BE016F5F7F4FCE010D960E944206AF
:10127000CE0101960E948D06CE0107960E948D0632
:10128000B801CE010D960E9427068C01CE010D9665
:101290000E948D0681E00F3F1F4F09F480E06296A7
:1012A0000FB6F894DEBF0FBECDBFDF91CF911F9177
:1012B0000F91FF90EF90DF90CF900895CF92DF9243
:1012C000EF92FF921F93CF93DF93CDB7DEB7AA972C
:1012D0000FB6F894DEBF0FBECDBFBC01CE014F9656
:1012E0000E947B076DE272E0CE0185960E94950711
:1012F00068E373E0CE0149960E9495070E946B0156
:1013000061E372E08091D5069091D6060E941A069C
:10131000BE016B5D7F4F8091D5069091D6060E94ED
:101320004B0464E272E08091D5069091D6060E944B
:101330001A06BE01615E7F4F8091D5069091D60658
:101340000E944B046FE372E08091D5069091D6061F
:101350000E941A06E090D506F090D6062AE048E8EA
:1013600053E160E070E0C7010E94B50566E373E0F9
:10137000C7010E94930562E472E0CE010D960E94BF
:10138000950762E572E0CE0107960E94950769E82D
:1013900073E0CE0101960E94950768E373E0CE01E9
:1013A00043960E9495070E9438036B017C010E94BE
:1013B00038036C197D098E099F09603177428105D8
:1013C0009105E8F58091D5069091D606DC01ED9166
:1013D000FC910084F185E02D1995181619069CF4EE
:1013E0008091D5069091D606DC01ED91FC910284A6
:1013F000F385E02D1995882329F3682FCE014396B4
:101400000E942D07DFCFBE016F5F7F4FCE01439655
:101410000E942706019699F4BE01695F7F4FCE01B5
:1014200043960E942706019651F4BE01635F7F4FE9
:10143000CE0143960E942706019609F4B8CFBE015B
:101440006D5E7F4FCE0149960E944206CE014396C3
:101450000E948D06CE0101960E948D06CE01079650
:101460000E948D06CE010D960E948D0669E873E0FC
:10147000CE0107960E949507BE01695F7F4FCE019E
:1014800049960E94270611E00196A9F462E472E0F1
:10149000CE0101960E949507BE016F5F7F4FCE017E
:1014A00049960E94270611E0019609F410E0CE014A
:1014B00001960E948D06CE0107960E948D06CE01F0
:1014C00049960E948D06CE0185960E948D06CE011A
:1014D0004F960E948D06812FAA960FB6F894DEBF14
:1014E0000FBECDBFDF91CF911F91FF90EF90DF90A6
:1014F000CF900895AF92BF92CF92DF92EF92FF927A
:101500000F931F93CF93DF936C015B017A018901E5
:101510002417350720F48F2D7901042F182F68E345
:1015200073E0C6010E949507D5011496CD91DC9118
:10153000EC16FD06E0F40C171D0708F4E801D501D0
:10154000ED91FC911197EC0FFD1F108110826D91B0
:101550007C916E0D7F1DC60161157105A1F00E9481
:101560007107F50180819181C80FD91F1883C601C9
:10157000DF91CF911F910F91FF90EF90DF90CF906F
:10158000BF90AF9008950E947B06EBCF8F929F9201
:10159000AF92BF92CF92DF92EF92FF920F931F9381
:1015A000CF93DF93CDB7DEB762970FB6F894DEBF67
:1015B0000FBECDBF7C015B014A01890168E373E086
:1015C000CE010D960E949507B701CE0107960E94A5
:1015D0007B0728EE33E040E050E0BE01695F7F4FBB
:1015E000CE0101960E941008BE016F5F7F4FCE01B1
:1015F0000D960E944206CE0101960E948D06CE01F4
:1016000007960E948D06B701CE010D960E9427060F
:10161000019609F44BC0B501CE010D960E94270634
:101620006C01990FEE08FF08B401CE010D960E94DF
:101630002706EFEFCE16DE06EE06FE06B9F18F3F67
:101640009807A1F1F50124813581B701A601420F68
:10165000531F611D711D9C01BE01635F7F4FCE0151
:1016600001960E947A0ABE016F5F7F4FC8010E94F7
:101670004206CE0101960E948D0611E0CE010D9624
:101680000E948D06812F62960FB6F894DEBF0FBEC2
:10169000CDBFDF91CF911F910F91FF90EF90DF9021
:1016A000CF90BF90AF909F908F90089568E373E0C4
:1016B000C8010E94710710E0E1CF2F923F924F9234
:1016C0005F926F927F928F929F92AF92BF92CF92D2
:1016D000DF92EF92FF920F931F93CF93DF93CDB7DB
:1016E000DEB7C454D3400FB6F894DEBF0FBECDBFF3
:1016F00068E572E08E010F5F1F4FC8010E949507D9
:10170000C8010E945E09F82EC8010E948D06FF20C4
:1017100009F4DEC265E672E08BE995E00E941A06E4
:1017200068E373E0CE01835D9C4F0E94950767EDEF
:1017300076E0C8010E947B0769E872E0C8010E9458
:10174000E9067C014091F4065091F5066091F0069F
:101750007091F1060E94BD06811103C0C7010E946D
:101760007B06B701CE018D5C9C4F0E947B07C801B0
:101770000E948D066DE872E0CE01875C9C4F0E944E
:1017800095076FE872E0CE01875C9C4F0E9441078D
:1017900060918C0570918D0580918E0590918F05DB
:1017A0000E94E616CE01875C9C4F0E94FF066FE9FF
:1017B00072E0CE01875C9C4F0E94410760918405D6
:1017C0007091850580918605909187050E94E616A7
:1017D000CE01875C9C4F0E94FF0668EA72E0CE0152
:1017E000875C9C4F0E94410760918A0570918B0530
:1017F000CE01875C9C4F0E94FF0661EB72E0CE0138
:10180000875C9C4F0E94410766E272E0C8010E941B
:101810009507C95CDC4F48815981C753D340CD5CE3
:10182000DC4F68817981C353D340C8010E94BD0653
:10183000811103C0C8010E947B0666E272E0C80104
:101840000E94E906DC0114964D915C9115976D910B
:101850007C91CE01875C9C4F0E94BD06C8010E940E
:101860008D066EEB72E0CE01875C9C4F0E944107B3
:10187000CE01875C9C4F0E94A20560EC72E0CE0115
:10188000815C9C4F0E9495076EED72E0CE01815CF9
:101890009C4F0E94410768E572E0CE01815C9C4F3D
:1018A0000E94410765EE72E0CE01815C9C4F0E9470
:1018B000410760E073E0CE01815C9C4F0E944107CC
:1018C00061E273E0CE01815C9C4F0E9441074AE0D7
:1018D000B801C35CDC4F88819981CD53D3400E940D
:1018E0005415F80101900020E9F73197AF01401B32
:1018F000510BB801CE01815C9C4F0E94BD0664E390
:1019000073E0CE01815C9C4F0E944107C35CDC4FB9
:1019100048815981CD53D340C75CDC4F68817981C0
:10192000C953D340CE01815C9C4F0E94BD0680E22A
:1019300093E0F8019C01119221503040E1F7CD5B1A
:10194000DC4F88809980C354D340B12CA12CC15C5A
:10195000DC4FC880CF53D340C05CDC4FD880C0542C
:10196000D3400E946B0169E373E08091D5069091AA
:10197000D6060E941A06E090D506F090D6062AE018
:10198000B501A401C7010E94B50566E373E0C70174
:101990000E94930565E473E0CE018F5D9C4F0E9429
:1019A000950748E853E160E070E0CE018F5D9C4F01
:1019B0000E940A09F82ECE018F5D9C4F0E948D0671
:1019C000FF20A1F10E946B017601412C512C3201C4
:1019D000481459046A047B04A0F48091D5069091C0
:1019E000D606D7016D917D01DC01ED91FC9101904E
:1019F000F081E02D1995BFEF4B1A5B0A6B0A7B0A49
:101A0000E7CF67E473E0CE018F5D9C4F0E9495079E
:101A100040E157E260E070E0CE018F5D9C4F0E9494
:101A20000A09CE018F5D9C4F0E948D0668E373E02A
:101A3000CE01895D9C4F0E9495070E9438034B019F
:101A40005C010E943803681979098A099B09603191
:101A5000774281059105E8F0C12CD12C7601CE01A9
:101A6000895D9C4F0E948D06C114D104E104F104EC
:101A700009F464C1C00ED11EC016D10609F448C1D4
:101A8000F80161918F01CE01835D9C4F0E942D076B
:101A9000F3CF8091D5069091D606DC01ED91FC91B3
:101AA0000084F185E02D1995181619068CF48091A3
:101AB000D5069091D606DC01ED91FC910284F38568
:101AC000E02D1995682FCE01895D9C4F0E942D074E
:101AD0006FE473E0CE018F5D9C4F0E949507BE01BD
:101AE0006F5D7C4FCE01895D9C4F0E9427067C0173
:101AF000CE018F5D9C4F0E948D06BFEFEB16FB065B
:101B000009F49FCFE5E0EE0EF11CC55DDC4F2880A7
:101B10003980CB52D340E214F30490F4C95DDC4F1A
:101B200068807980C752D3406AE370E0C3018E0DAC
:101B30009F1D0E9455196C01C618D708892B19F4EE
:101B4000CC24CA94DC2C26010D2C000C66087708E6
:101B5000FFEF4F165F066F067F0609F472CFE2149F
:101B6000F30408F0A5C0C95DDC4FA880B980C75256
:101B7000D3406CE270E0C5018E0D9F1D0E94551987
:101B8000009709F495C09C012A193B095901C50128
:101B90000B2C000CAA0BBB0B8F3F3FEF9307A30747
:101BA000B30709F489C084159505A605B7050CF09F
:101BB00083C09501A701BE01695D7C4FCE018F5D99
:101BC0009C4F0E947A0ACE018F5D9C4F0E941C069A
:101BD000F62ECE018F5D9C4F0E948D0684E0A501FC
:101BE0004F5F5F4F96018F1508F436CFBE01695DD8
:101BF0007C4FCE018F5D9C4F0E947A0ACE018F5D93
:101C00009C4F0E941C066B017C01CE018F5D9C4F96
:101C10000E948D061C141D041E041F040CF01CCF12
:101C2000F1E2CF16F3E0DF06E104F10430F080E2E8
:101C3000C82E83E0D82EE12CF12C0E9438032B0112
:101C40003C01812C912C54010E94380364197509C0
:101C500086099709683B7B408105910508F0FCCE19
:101C60008091D5069091D606DC01ED91FC9100841F
:101C7000F185E02D1995181619060CF58C149D04A4
:101C8000AE04BF04E0F48091D5069091D606DC0145
:101C9000ED91FC910284F385E02D1995F801E80D92
:101CA000F91D8083BFEF8B1A9B0AAB0ABB0AD8CF02
:101CB000AA24AA94BA2C6BCF9601A70197CFC81477
:101CC000D904EA04FB0409F0BFCF0E946B01C7CE20
:101CD00065E573E08BE995E00E941A06CC5BDC4F6A
:101CE0000FB6F894DEBF0FBECDBFDF91CF911F912D
:101CF0000F91FF90EF90DF90CF90BF90AF909F90AB
:101D00008F907F906F905F904F903F902F900895AD
:101D1000BE01635D7C4FCE018F5D9C4F0E947B07AF
:101D200067E773E0CE018F5D9C4F0E94E9060E9439
:101D3000A205CE018F5D9C4F0E948D06CE01815C75
:101D40009C4F0E948D06CE01875C9C4F0E948D06A1
:101D5000CE018D5C9C4F0E948D06CE01835D9C4F11
:101D60000E948D06BBCF1F920F920FB60F921124C7
:101D70002F933F938F939F93AF93BF93809193053E
:101D800090919405A0919505B0919605309192059A
:101D900023E0230F2D3758F50196A11DB11D209387
:101DA00092058093930590939405A0939505B09325
:101DB00096058091970590919805A0919905B0910D
:101DC0009A050196A11DB11D8093970590939805E2
:101DD000A0939905B0939A05BF91AF919F918F9170
:101DE0003F912F910F900FBE0F901F90189526E8EE
:101DF000230F0296A11DB11DD2CF1F920F920FB6D5
:101E00000F9211240BB60F922F933F934F935F9332
:101E10006F937F938F939F93AF93BF93EF93FF93B2
:101E200088E396E00E94D704FF91EF91BF91AF91B4
:101E30009F918F917F916F915F914F913F912F91E2
:101E40000F900BBE0F900FBE0F901F9018951F9212
:101E50000F920FB60F9211240BB60F922F938F9300
:101E60009F93EF93FF93E0914806F091490680819C
:101E7000E0914E06F0914F0682FD1DC09081809149
:101E800051068F5F8F7320915206821741F0E091C7
:101E90005106F0E0E85CF94F958F80935106FF9171
:101EA000EF919F918F912F910F900BBE0F900FBECE
:101EB0000F901F9018958081F2CF1F920F920FB64E
:101EC0000F9211240BB60F922F933F934F935F9372
:101ED0006F937F938F939F93AF93BF93EF93FF93F2
:101EE0008BE995E00E94D704FF91EF91BF91AF91EC
:101EF0009F918F917F916F915F914F913F912F9122
:101F00000F900BBE0F900FBE0F901F9018951F9251
:101F10000F920FB60F9211240BB60F922F938F933F
:101F20009F93EF93FF93E091AB05F091AC05808117
:101F3000E091B105F091B20582FD1DC090818091C4
:101F4000B4058F5F8F732091B505821741F0E09142
:101F5000B405F0E0E556FA4F958F8093B405FF91F4
:101F6000EF919F918F912F910F900BBE0F900FBE0D
:101F70000F901F9018958081F2CFCF92DF92EF9251
:101F8000FF920F931F93E82FF92F05C001501109FD
:101F90002109310961F1908196239417B9F305C0A5
:101FA000015011092109310911F1908196239413EF
:101FB000F7CFC12CD12CE12CF12C0AC08FEFC81A1D
:101FC000D80AE80AF80A0C151D052E053F0579F018
:101FD00080818623841791F36C2D7D2D8E2D9F2D6E
:101FE0001F910F91FF90EF90DF90CF90089560E0E8
:101FF00070E080E090E01F910F91FF90EF90DF90F4
:10200000CF900895CF93DF93C8E3D6E01B821A8266
:1020100048EE53E060E070E04C835D836E837F8325
:102020008BE092E0998388832DEC30E03D872C870C
:102030002CEC30E03F872E8728EC30E0398B288B62
:1020400029EC30E03B8B2A8B2AEC30E03D8B2C8B4B
:102050002EEC30E03F8B2E8B198E1A8E1B8E1C8E31
:10206000EBE9F5E01382128244835583668377831C
:102070009183808385EC90E09587848784EC90E061
:102080009787868780EC90E0918B808B81EC90E045
:10209000938B828B82EC90E0958B848B86EC90E026
:1020A000978B868B118E128E138E148E68E373E0DD
:1020B00080EF96E00E949507ADEDB6E089E31596B6
:1020C0008C9315978BE016968C931697EFE5F2E0BC
:1020D000E4911796EC931797E9E1F2E0E4911896F2
:1020E000EC93189740E85EE360E070E01D964D9336
:1020F0005D936D937C93509768E373E087ED96E072
:102100000E949507D093D606C093D50640E855E2C5
:1021100060E070E0CE010E948601DF91CF910C94C7
:102120006B01CF93DF93CDB7DEB768970FB6F89406
:10213000DEBF0FBECDBF789484B5826084BD84B508
:10214000816084BD85B5826085BD85B5816085BDB2
:1021500080916E00816080936E001092810080916A
:1021600081008260809381008091810081608093F2
:102170008100809180008160809380008091B10017
:1021800084608093B1008091B00081608093B00042
:102190008091910082608093910080919100816094
:1021A0008093910080919000816080939000809155
:1021B000A10082608093A1008091A1008160809342
:1021C000A1008091A00081608093A00080912101F6
:1021D000826080932101809121018160809321019F
:1021E0008091200181608093200180917A00846039
:1021F00080937A0080917A00826080937A00809147
:102200007A00816080937A0080917A008068809360
:102210007A001092C10040E052EC61E070E08BE97E
:1022200095E00E94860140E052EC61E070E088E3B6
:1022300096E00E94860160E087E30E948E0260E0E3
:1022400088E30E948E0262E08091E2060E948E0284
:102250000E943803605D7740810991096093E6062A
:102260007093E7068093E8069093E90687E38093EE
:10227000EF0661E08BE30E948E0260E08AE30E9439
:102280008E0261E08CE30E948E0261E08CE30E948A
:10229000020261E083E00E948E0268E373E0CE01F7
:1022A00043960E9495070E946B016AE773E0809154
:1022B000D5069091D6060E94010665E873E0CE012E
:1022C0000D960E9495076CE873E0CE0107960E9478
:1022D000950769E873E0CE0101960E9495079E017B
:1022E0002D5E3F4FAE01435F5F4FBE01695F7F4F81
:1022F000CE0101960E94C60AF82ECE0101960E94D8
:102300008D06CE0107960E948D06CE010D960E9485
:102310008D06FF2029F0CE0143960E941C06162F41
:10232000CE0143960E948D06FF2009F418C2133097
:1023300009F4DAC068E373E0CE0143960E94950782
:102340000E946B0165E973E08091D5069091D606F5
:102350000E941A06C090D506D090D6062AE043E027
:1023600050E060E070E0C6010E94B50566E373E0EE
:10237000C6010E94930560EA73E0CE0107960E94B1
:10238000950769E873E0CE0101960E94950708EE73
:1023900013E020E030E0AE01495F5F4FBE016F5FA8
:1023A0007F4FCE010D960E94AA07BE01635F7F4F4B
:1023B000CE0143960E944206CE010D960E948D06E4
:1023C000CE0101960E948D06CE0107960E948D06D1
:1023D00069E873E0CE0107960E949507BE01695F28
:1023E0007F4FCE0143960E9427060196B1F460EA22
:1023F00073E0CE0101960E949507BE016F5F7F4F8B
:10240000CE0143960E942706FF24F394019609F417
:10241000F12CCE0101960E948D06CE0107960E94F6
:102420008D06CE0143960E948D06FF2009F497C1C8
:102430000E946B016AEA73E08091D5069091D606FE
:102440000E94010669E873E0CE0101960E9495079B
:1024500048EE53E060E070E0CE0101960E940A0968
:10246000182FCE0101960E948D06112309F477C121
:1024700060ED77E080E090E00E9406030E94380360
:102480006B017C010E9438036C197D098E099F093C
:10249000683B7B408105910508F061C10E946B019A
:1024A00061EB73E08091D5069091D6060E940106FB
:1024B00069E873E0CE0101960E94950748EE53E06B
:1024C00060E070E0CE0101960E940A09182FCE014B
:1024D00001960E948D06112309F43AC16CED75E056
:1024E00080E090E00E94060364EB73E08BE995E0E6
:1024F0000E941A0667EE73E0CE0101960E949507CE
:1025000064EF73E0CE0107960E949507BE016F5FEE
:102510007F4FCE0107960E946708182FCE010796BD
:102520000E948D06CE0101960E948D06112309F4AA
:1025300019C16EEF73E08BE995E00E941A0660E125
:1025400074E08BE995E00E941A0668E373E0CE011F
:1025500043960E9495070E946B0164E174E08091AC
:10256000D5069091D6060E94010665E873E0CE017B
:102570000D960E9495076DE174E0CE0107960E94CA
:10258000950769E873E0CE0101960E9495079E01C8
:102590002D5E3F4FAE01435F5F4FBE01695F7F4FCE
:1025A000CE0101960E94C60ACE0101960E948D06B8
:1025B000CE0107960E948D06CE010D960E948D06D3
:1025C0006B897C898BE995E00E940106CE014396D8
:1025D0000E948D0668E373E0CE0143960E94950742
:1025E0000E946B0163E374E08091D5069091D6065A
:1025F0000E941A06E090D506F090D6062AE040E048
:1026000050E0BA01C7010E94B50566E373E0C70157
:102610000E9493056EE374E0CE0107960E94950731
:1026200069E873E0CE0101960E94950708EE13E079
:1026300020E030E0AE01495F5F4FBE016F5F7F4F2A
:10264000CE010D960E94AA07BE01635F7F4FCE01A7
:1026500043960E944206CE010D960E948D06CE0141
:1026600001960E948D06CE0107960E948D0669E8AC
:1026700073E0CE0101960E949507BE016F5F7F4F08
:10268000CE0143960E9427067C01CE0101960E944E
:102690008D06CE0143960E948D066EE474E0EF2015
:1026A000E09411F46AE574E08BE995E00E941A0663
:1026B00067E674E08BE995E00E941A0623E0E22EBB
:1026C000F12C33E2C32ED12C40E6A42E42E0B42EEE
:1026D0005AE1852E52E0952E87E30E94CA02BC0182
:1026E000990F880B990B0E9480152AE037ED43E281
:1026F0005CE30E94BB15609384057093850580930D
:1027000086059093870588E30E94CA0290938B0503
:1027100080938A05883C910564F163E774E08BE956
:1027200095E00E94010680918805909189050196A7
:1027300090938905809388058091880590918905FB
:102740008430910549F1089791F168E373E026C060
:1027500064E670E080E090E00E94060393CE6DECAA
:1027600073E0C4CE61E274E08BE995E00E941A0642
:1027700031CF68E373E080EF96E00E94710710921A
:1027800089051092880561E083E00E948E0260E076
:1027900083E00E940202D0CF64E974E080EF96E00B
:1027A0000E94710780EF96E00E94A20518C060E0C9
:1027B0008CE30E940202109200026DEC74E080EF44
:1027C00096E00E94710780EF96E00E94A20561E00A
:1027D00083E00E948E0261E083E00E9402020E9478
:1027E0004403882341F08091E3068C3009F4BBC098
:1027F00038F48B30F1F060E070E080EC9FE741C08E
:1028000085518230C0F71091DF06612F70E0762F7E
:10281000662766277F778091E006682B90E080E04E
:102820000E947E152DEC3CEC4CEC5DE30E94BB1548
:10283000B6C06091DF0670E090E080E00E947E15F7
:102840002B013C011091E00617FF0AC0AC019B016F
:1028500060E070E080E89FEB0E9479162B013C015C
:102860001F70612F70E090E080E00E9480152DECD9
:102870003CEC4CEC5DE30E94BB15A30192010E946D
:102880007A1660938C0570938D0580938E059093D6
:102890008F0560E08BE30E940202C7010197F1F708
:1028A00061E08BE30E940202C6010197F1F760E04C
:1028B0008BE30E940202F5016491F4018491E82FF8
:1028C000F0E0EE0FFF1FEA53FE4F8591949100E474
:1028D00012E42FE030E0462F0E94BD0F6115710514
:1028E0008105910529F06F5F7F4F8F4F9F4F9F703C
:1028F000072E000C880B990B0E94801526E933E403
:102900004BE05DE30E94BB1520E030E040E05FE378
:102910000E94BB150E94E6166B3071050CF043C097
:102920006AEF74E08BE995E00E94010668E373E0CA
:1029300087ED96E00E947107109291051092900524
:1029400080910002882309F459C0809190059091EC
:1029500091056FE175E084309105E9F1089799F1EF
:1029600068E373E038C01091DF06612F70E090E0FB
:1029700080E00E947E152B013C016091E0066F70A3
:1029800070E090E080E00E9480152DEC3CEC4CEC77
:102990005DE30E94BB15A30192010E947A1617FF06
:1029A00070CF90586ECF6EE075E08BE995E00E9495
:1029B0000106809190059091910501969093910563
:1029C00080939005BDCF60E08CE30E9402021092DC
:1029D000000268E575E087ED96E00E94710787EDDB
:1029E00096E00E94A2050E945D0B68E873E180E01A
:1029F00090E00E9406030E9466056ECE68E373E0D5
:102A000087ED96E00E947107EECF87ED96E00E9479
:102A10008D0680EF96E00C948D061F93FC0199279C
:102A20008827BC01E89411911032E9F3193010F0B5
:102A30001E30C8F31B3251F01D3249F4689406C0B1
:102A40000E943F15610F711D811D911D1191105341
:102A50001A30B0F33EF490958095709561957F4F54
:102A60008F4F9F4F1F910895BB274A3031F4992310
:102A700022F4BDE2909581959F4F0C945515592FE6
:102A8000482F372F262F660F771F881F991F660F35
:102A9000771F881F991F620F731F841F951F660F72
:102AA000771F881F991F0895BB27FB015527AA2769
:102AB000880F991FAA1FA41710F0A41B83955051CB
:102AC000B9F7A05DAA3308F0A95DA193009779F743
:102AD000B111B1931192CB010C946E15DC01FC0184
:102AE000672F71917723E1F7329704C07C916D9342
:102AF00070836291AE17BF07C8F30895E89409C0C8
:102B000097FB3EF490958095709561957F4F8F4F20
:102B10009F4F9923A9F0F92F96E9BB279395F69536
:102B2000879577956795B795F111F8CFFAF4BB0FB4
:102B300011F460FF1BC06F5F7F4F8F4F9F4F16C018
:102B4000882311F096E911C0772321F09EE8872FA2
:102B5000762F05C0662371F096E8862F70E060E05E
:102B60002AF09A95660F771F881FDAF7880F9695D7
:102B7000879597F908950E94CE150C943F160E94F0
:102B8000311638F00E94381620F0952311F00C947D
:102B900028160C942E1611240C9473160E945016AD
:102BA00070F3959FC1F3950F50E0551F629FF001A0
:102BB000729FBB27F00DB11D639FAA27F00DB11DB9
:102BC000AA1F649F6627B00DA11D661F829F222742
:102BD000B00DA11D621F739FB00DA11D621F839FC9
:102BE000A00D611D221F749F3327A00D611D231F9F
:102BF000849F600D211D822F762F6A2F11249F57ED
:102C000050409AF0F1F088234AF0EE0FFF1FBB1FEF
:102C1000661F771F881F91505040A9F79E3F5105AE
:102C200080F00C9428160C9473165F3FE4F3983EE2
:102C3000D4F3869577956795B795F795E7959F5F58
:102C4000C1F7FE2B880F911D9695879597F90895EA
:102C500097F99F6780E870E060E008959FEF80EC4F
:102C6000089500240A9416161706180609060895F2
:102C700000240A9412161306140605060895092E58
:102C80000394000C11F4882352F0BB0F40F4BF2BC7
:102C900011F460FF04C06F5F7F4F8F4F9F4F089507
:102CA00057FD9058440F551F59F05F3F71F04795FD
:102CB000880F97FB991F61F09F3F79F087950895E2
:102CC000121613061406551FF2CF4695F1DF08C001
:102CD000161617061806991FF1CF8695710561051E
:102CE00008940895E894BB2766277727CB0197F9C6
:102CF00008955058BB27AA270E9491160C943F169E
:102D00000E94311638F00E94381620F039F49F3FA7
:102D100019F426F40C942E160EF4E095E7FB0C94AF
:102D20002816E92F0E94501658F3BA176207730746
:102D30008407950720F079F4A6F50C9472160EF42A
:102D4000E0950B2EBA2FA02D0B01B90190010C01BB
:102D5000CA01A0011124FF27591B99F0593F50F4D3
:102D6000503E68F11A16F040A22F232F342F44272B
:102D7000585FF3CF469537952795A795F040539523
:102D8000C9F77EF41F16BA0B620B730B840BBAF0F3
:102D90009150A1F0FF0FBB1F661F771F881FC2F75E
:102DA0000EC0BA0F621F731F841F48F48795779572
:102DB0006795B795F7959E3F08F0B0CF9395880F2C
:102DC00008F09927EE0F9795879508950E94ED16C4
:102DD0006894B1110C94731608950E94581688F0E7
:102DE0009F5798F0B92F9927B751B0F0E1F0660FCF
:102DF000771F881F991F1AF0BA95C9F714C0B13010
:102E000091F00E947216B1E008950C947216672F2B
:102E1000782F8827B85F39F0B93FCCF3869577953E
:102E20006795B395D9F73EF4909580957095619527
:102E30007F4F8F4F9F4F0895A1E21A2EAA1BBB1BF5
:102E4000FD010DC0AA1FBB1FEE1FFF1FA217B30776
:102E5000E407F50720F0A21BB30BE40BF50B661F8C
:102E6000771F881F991F1A9469F760957095809550
:102E700090959B01AC01BD01CF010895EE0FFF1F9E
:102E8000881F8BBF0790F691E02D19940F931F9325
:102E9000CF93DF938230910510F482E090E0E091CF
:102EA000F806F091F90630E020E0B0E0A0E03097BD
:102EB00099F42115310509F44AC0281B390B243037
:102EC0003105D8F58A819B816115710589F1FB0176
:102ED00093838283FE0111C040815181028113815D
:102EE00048175907E0F04817590799F4109761F00F
:102EF00012960C93129713961C933296CF01DF9182
:102F0000CF911F910F9108950093F8061093F90641
:102F1000F4CF2115310551F04217530738F0A901BC
:102F2000DB019A01BD01DF01F801C1CFEF01F9CF4B
:102F30009093F9068093F806CDCFFE01E20FF31FC0
:102F4000819391932250310939832883D7CF2091DF
:102F5000F6063091F706232B41F4209103023091BD
:102F600004023093F7062093F60620910102309177
:102F700002022115310541F42DB73EB740910502FB
:102F800050910602241B350BE091F606F091F706EE
:102F9000E217F307A0F42E1B3F0B2817390778F030
:102FA000AC014E5F5F4F2417350748F04E0F5F1F8F
:102FB0005093F7064093F606819391939FCFF0E0EC
:102FC000E0E09CCFCF93DF930097E9F0FC013297CC
:102FD00013821282A091F806B091F906ED0130E05B
:102FE00020E01097A1F420813181820F931F20915E
:102FF000F6063091F7062817390709F061C0F093FB
:10300000F706E093F606DF91CF910895EA01CE1717
:10301000DF07E8F54A815B819E0141155105B1F753
:10302000E901FB83EA8349915991C40FD51FEC173D
:10303000FD0761F4808191810296840F951FE9015B
:1030400099838883828193819B838A83F0E0E0E087
:1030500012968D919C9113970097B9F52D913C9103
:103060001197CD010296820F931F2091F6063091A1
:10307000F7062817390739F6309751F51092F906F7
:103080001092F806B093F706A093F606BCCFD38350
:10309000C28340815181840F951FC817D90761F4FD
:1030A0004E5F5F4F88819981480F591F518340833C
:1030B0008A819B81938382832115310509F0B0CFEA
:1030C000F093F906E093F8069ECFFD01DC01C0CF36
:1030D00013821282D7CF4F925F926F927F928F921C
:1030E0009F92AF92BF92CF92DF92EF92FF920F9397
:1030F0001F93CF93DF938C01009799F4CB01DF915D
:10310000CF911F910F91FF90EF90DF90CF90BF90E4
:10311000AF909F908F907F906F905F904F900C94A6
:103120004617FC01E60FF71F9C0122503109E217F8
:10313000F30708F4AEC0D901CD91DC911197C61701
:10314000D70720F1C530D10578F0CE010497861756
:10315000970750F0C61BD70B2297C193D1936D935D
:103160007C93CF010E94E217C801DF91CF911F919C
:103170000F91FF90EF90DF90CF90BF90AF909F9016
:103180008F907F906F905F904F9008955B01AC1A85
:10319000BD0A4C018C0E9D1EA091F806B091F90657
:1031A000512C412CF12CE12C109731F58091F60631
:1031B0009091F7068815990509F05CC046165706E8
:1031C00008F058C08091010290910202009741F4EA
:1031D0008DB79EB74091050250910602841B950B56
:1031E000E817F90708F055C0F093F706E093F606E4
:1031F000F90171836083B8CF8D919C9111971296DC
:103200006C90129713967C901397A815B90559F5F1
:103210006C0142E0C40ED11CCA14DB0420F1AC01E5
:103220004A195B09DA011296159780F0628273825F
:1032300051834083D9016D937C93E114F10471F0C3
:10324000D7011396FC93EE9312978ECF22968C0F94
:103250009D1FF90191838083F301EFCFF093F9066D
:10326000E093F80681CF4816590608F42C017D0139
:10327000D3019ACFCB010E9446177C01009749F0F9
:10328000AE01B8010E944C19C8010E94E2178701E3
:103290006BCF10E000E068CFFB01DC0102C00190C1
:1032A0000D9241505040D8F70895FC018191861746
:1032B00021F08823D9F7992708953197CF010895F0
:1032C000FB01DC0101900D920020E1F70895FB0164
:1032D00051915523A9F0BF01DC014D9145174111D2
:1032E000E1F759F4CD010190002049F04D914015CE
:1032F0004111C9F3FB014111EFCF81E090E001974B
:10330000089511E0C7E3D1E000E006C0802FFE0180
:103310000E943E172196011DC833D10780E008079F
:06332000A9F7F894FFCFAD
:10332600010000FA06800000000000F90459048636
:10333600044605B7049504A90441542B43574A4152
:10334600503D2200222C22004641494C0054435055
:103356000041542B43495053544152543D220022BC
:103366002C00414C524541445920434F4E4E454353
:1033760054004552524F520031382E3231352E32DA
:1033860033332E360073796E63506F6D6F646F72D0
:103396006F53657474696E677320746370206F6B06
:1033A6002E2020202020202000202D20007B000A17
:1033B6002254656D7065726174757261223A002CD3
:1033C6000A224C757A223A002C0A22434F32223ABC
:1033D600002C0A224D656E73616A65223A007D00F3
:1033E600504F5354202F696E736572746172446135
:1033F600746120485454502F312E310D0A00486F05
:1034060073743A20000D0A4163636570743A206153
:1034160070706C69636174696F6E2F6A736F6E008A
:103426000D0A436F6E74656E742D547970653A207B
:103436006170706C69636174696F6E2F6A736F6E09
:10344600000D0A436F6E74656E742D4C656E67745D
:10345600683A20000D0A0D0A0041542B4349505387
:10346600454E443D003E0053454E44204F4B002BF5
:103476004950442C0073796E63506F6D6F646F72A0
:103486006F53657474696E67732074637020666128
:10349600696C65640D0A0079690041542B43574DE8
:1034A6004F44453F000D0A0D0A4F4B002B43574D25
:1034B6004F44453A0041542B43574D4F44453D0038
:1034C6006E6F206368616E67650041542B525354DA
:1034D60000415400746F2073746174696F6E202B01
:1034E60020736F66746170206F6B0D0A00746F2015
:1034F60073746174696F6E202B20736F66746170CC
:10350600206572720D0A0034443936393735303049
:10351600353931005449474F2D34394439004A6F03
:10352600696E20415020737563636573730D0A00DD
:1035360049503A0041542B4349465352000D0D0A57
:10354600004A6F696E204150206661696C7572652C
:103556000D0A0041542B4349504D55583D004C69C6
:103566006E6B206973206275696C646564007369AB
:103576006E676C65206F6B0D0A0073696E676C650C
:10358600206572720D0A00736574757020656E642D
:103596000D0A004C6120636F6E63656E7472616321
:1035A60069C3B36E20646520434F32206573206182
:1035B6006C7461004C61206861626974616369C3FF
:1035C600B36E206375656E746120636F6E20756ED1
:1035D600612063616C69646164206465206169725D
:1035E6006520646566696369656E7465006C696DFE
:1035F6007069657A612064656C2061697265206412
:1036060065206C61206861626974616369C3B36E29
:1036160020616374697661646F00446574656374E0
:1036260061646F206F6273746163756C6F004E6FB7
:1036360020686179206F6273746163756C6F004CEA
:1036460061206861626974616369C3B36E206573E2
:1036560074C3A120696C756D696E616461207065C3
:10366600726F206E6F20686179206E6164696520D3
:10367600656E20656C6C6100456C207369737465BA
:103686006D6120646520696C756D696E616369C3DF
:10369600B36E206861207369646F20617061676131
:0436A600646F00004D
:00000001FF
