:020000040000FA
:100000000C944D010C947E010C947E010C947E01A5
:100010000C947E010C947E010C947E010C947E0164
:100020000C947E010C947E010C947E010C947E0154
:100030000C947E010C947E010C947E010C947E0144
:100040000C947E010C947E010C947E010C947E0134
:100050000C947E010C947E010C947E010C94630A36
:100060000C947E010C94D70A0C94AD0A0C947E017A
:100070000C947E010C947E010C947E010C947E0104
:100080000C947E010C947E010C947E010C947E01F4
:100090000C947E010C947E010C947E010C947E01E4
:1000A0000C947E010C947E010C947E010C947E01D4
:1000B0000C947E010C947E010C947E010C947E01C4
:1000C0000C947E010C947E010C947E010C947E01B4
:1000D0000C947E010C947E010C947E010C947E01A4
:1000E0000C947E010C945A030C9468030C946203E4
:1000F0000C944A030C945A040C9454030C94430338
:100100000C9401030C9438040C946C030C940D0BA8
:100110000C94DF040C9470030C9429040C94500389
:100120000C947A030C945E030C94FC030C943F0330
:100130000C9492040C9476030C94FC020C943B03F4
:100140000C9447030C944C04CDCCCC3D0AD7233CF3
:1001500017B7D13877CC2B329595E6241FB14F0ACB
:10016000000020410000C84200401C4620BCBE4C9C
:10017000CA1B0E5AAEC59D74000021002400270042
:100180002A002D00300033000101000004010701A6
:100190000A0100002200250028002B002E0031005B
:1001A000340002010000050108010B0100000A0BE8
:1001B00002090C0D0E0807030401000000000000F6
:1001C000000000000000000000000000000000002F
:1001D00000000000000000001211100000000000EC
:1001E000000000000000000000000000000000000F
:1001F0000000000020002300260029002C002F0012
:100200003200000100000301060109010505050592
:10021000070508080808020202020A0A080804047E
:1002200004040101010101010101030303030303AC
:100230000303040707070C0C0C0C0C0C0C0C02023B
:10024000020206060606060606060B0B0B0B0B0B38
:100250000B0B0102102020080810204010204080C5
:10026000020102010804020101020408102040807A
:100270008040201008040201800402018040201008
:100280000804020108040201010204081020408051
:1002900001020408102040800D0B11241FBECFEF77
:1002A000D1E2DEBFCDBF00E00CBF12E0A0E0B2E0C3
:1002B000E6E6F3E200E00BBF02C007900D92A43B1C
:1002C000B107D9F723E0A4EBB2E001C01D92AF372C
:1002D000B207E1F711E0CDE4D1E000E006C02197DC
:1002E0000109802FFE010E948410CC34D10780E0E8
:1002F0000807A9F70E945A0B0C94B1110C94000046
:10030000CF92DF92EF92FF92CF93DF93B0916F0382
:10031000A0E08111AB2F8091700390E0880F991FAE
:10032000AC014E505E4FC0907503D0907603E090C4
:100330007703F090780330E020E0FA01C591D49182
:10034000E881B90190E080E0EB23EA130AC02F5F57
:100350003F4F6C157D058E059F0578F36FEF7FEF9E
:10036000CB01DF91CF91FF90EF90DF90CF90089578
:10037000CF93DF9390E0FC01EE5AFD4F2491845F10
:100380009D4FFC0184918823C9F090E0880F991F4C
:10039000FC01E858FE4FA591B491FC01EE56FE4FCA
:1003A000C591D49161110DC09FB7F8948C9120959F
:1003B00082238C938881282328839FBFDF91CF914C
:1003C0000895623051F49FB7F8943C91822F809544
:1003D00083238C93E8812E2BEFCF8FB7F894EC9189
:1003E0002E2B2C938FBFEACF90917B00977F909319
:1003F0007B008653806480937C0080917A008064C7
:1004000080937A0080917A0086FDFCCF80917800FD
:100410009091790008953FB7F8948091C30290912C
:10042000C402A091C502B091C60226B5A89B05C022
:100430002F3F19F00196A11DB11D3FBFBA2FA92F63
:10044000982F8827BC01CD01620F711D811D911D60
:1004500042E0660F771F881F991F4A95D1F70895CC
:100460008F929F92AF92BF92CF92DF92EF92FF92C4
:100470004B015C010E940B026B017C010E940B028C
:100480006C197D098E099F09683E734081059105AD
:10049000A8F321E0821A9108A108B10888EEC80EDD
:1004A00083E0D81EE11CF11C81149104A104B10465
:1004B00029F7FF90EF90DF90CF90BF90AF909F9083
:1004C0008F9008958F929F92AF92BF92EF92FF927A
:1004D0000F931F93CF93DF93CDB7DEB7C054D140B6
:1004E0000FB6F894DEBF0FBECDBF2FB7F894809142
:1004F000C7029091C802A091C902B091CA022FBF51
:100500004091710350917203609173037091740371
:100510008C019D01041B150B260B370BB901A8019B
:10052000403D574061057105A0F480917903C05C9E
:10053000DE4F0FB6F894DEBF0FBECDBFDF91CF9177
:100540001F910F91FF90EF90BF90AF909F908F9071
:1005500008958093710390937203A0937303B093F3
:10056000740310926C0310926B0310926A03109242
:1005700069031092680362E080916D030E94B801E4
:1005800061E070E080E090E00E94300261E08091E4
:100590006D030E94B80120916D0330E0F901E4552C
:1005A000FE4F8491F901EE5AFD4F9491245F3D4F27
:1005B000F9012491222309F433C0882311F18150D9
:1005C0008231F8F4E82FF0E08827E651FD4F8F4F95
:1005D0000C94841043034703FC023B033F030103D5
:1005E0004A03500354035A035E03620368036C0317
:1005F0000103700376037A03809180008F778093E4
:100600008000E22FF0E0EE0FFF1FEE56FE4FA591A7
:10061000B4918FB7F894EC9190959E239C938FBFE3
:1006200080916E038551823008F068C08BE291E1C1
:100630000197F1F762E080916D030E94B80180910B
:100640007A0390E08230910538F0880F991F880F67
:10065000991F05970197F1F7F89480E00E948001B7
:100660006F3F7F4F8F4F9F4F09F04FC0109279031C
:10067000789480E05CCF809180008F7DC0CF8091A6
:100680008000877FBCCF84B58F7784BDBACF84B517
:100690008F7DFBCF8091B0008F778093B000B1CF7A
:1006A0008091B0008F7DF9CF809190008F778093FB
:1006B0009000A7CF809190008F7DF9CF809190001E
:1006C000877FF5CF8091A0008F778093A00099CF8E
:1006D0008091A0008F7DF9CF8091A000877FF5CF1A
:1006E000809120018F77809320018BCF8091200112
:1006F0008F7DF9CF80912001877FF5CF64E170E095
:1007000080E090E00E94300295CF81E00E9480015D
:100710006F3F7F4F8F4F9F4F09F4A8CF9E012F5FF0
:100720003F4F79015E013FEBA31A3EEFB30A870109
:1007300080E00E948001F80160837183828393834B
:1007400081E00E948001F80164837583868397832A
:10075000085F1F4FA016B10659F7789430E020E0EB
:10076000F70180809180A280B380448155816681A9
:100770007781FFEF8F169F06AF06BF0631F04F3F20
:100780000FEF50076007700719F41092790371CFCB
:10079000F90183E0F595E7958A95E1F7E859FC4F73
:1007A0008081880F84169506A606B70618F1808307
:1007B0002F5F3F4F18E0E10EF11C2832310581F622
:1007C00040916C032091680380916903280F3327BF
:1007D000331F80916A03280F311D80916B03820FB4
:1007E000932F911D99274817190679F681E0809378
:1007F00079039DCE8160DBCFAF92BF92CF92DF9223
:10080000EF92FF920F931F93CF93DF936C017B01C5
:100810008B01040F151FEB015E01AE18BF08C01756
:10082000D10759F06991D601ED91FC910190F081C9
:10083000E02DC6011995892B79F7C501DF91CF917C
:100840001F910F91FF90EF90DF90CF90BF90AF90EE
:100850000895FC01538D448D252F30E0842F90E0C6
:10086000821B930B541710F0CF96089501970895AB
:10087000FC01918D828D981761F0A28DAE0FBF2F74
:10088000B11D5D968C91928D9F5F9F73928F90E0CA
:1008900008958FEF9FEF0895FC01918D828D981739
:1008A00031F0828DE80FF11D858D90E008958FEF76
:1008B0009FEF0895FC01918D228D892F90E0805C3F
:1008C0009F4F821B91098F73992708958BEC92E0BB
:1008D0000E945A0421E0892B09F420E0822F089518
:1008E000FC01A48DA80FB92FB11DA35ABF4F2C91A5
:1008F000848D90E001968F739927848FA689B7899C
:100900002C93A089B1898C91837080648C93938D92
:10091000848D981306C00288F389E02D80818F7D35
:1009200080830895EF92FF920F931F93CF93DF93ED
:10093000EC0181E0888F9B8D8C8D98131AC0E8891B
:10094000F989808185FF15C09FB7F894EE89FF89EA
:100950006083E889F98980818370806480839FBF88
:1009600081E090E0DF91CF911F910F91FF90EF9088
:100970000895F62E0B8D10E00F5F1F4F0F73112798
:10098000E02E8C8D8E110CC00FB607FCFACFE889D3
:10099000F989808185FFF5CFCE010E947004F1CFE7
:1009A000EB8DEC0FFD2FF11DE35AFF4FF0829FB747
:1009B000F8940B8FEA89FB8980818062CFCFCF9337
:1009C000DF93EC01888D8823B9F0AA89BB89E88977
:1009D000F9898C9185FD03C0808186FD0DC00FB61D
:1009E00007FCF7CF8C9185FFF2CF808185FFEDCF9B
:1009F000CE010E947004E9CFDF91CF91089580E08D
:100A000090E0892B29F00E94660481110E94000069
:100A100080E090E0892B49F080E090E0892B29F07C
:100A20000E94000081110E94000080E090E0892B6C
:100A300049F080E090E0892B29F00E9400008111AC
:100A40000E94000080E090E0892B49F080E090E077
:100A5000892B29F00E94000081110C940000089558
:100A6000CF93DF93EC0188819981DC01ED91FC91BA
:100A70000190F081E02D19952A813B81820F931F0F
:100A80009B838A83DF91CF910895CF93DF93EC010D
:100A900088819981DC01ED91FC910280F381E02D48
:100AA00019952A813B81820F931F9B838A83DF9153
:100AB000CF9108958F929F92AF92BF92CF92DF9283
:100AC000EF92FF920F931F93CF93DF93CDB7DEB7D3
:100AD00066970FB6F894DEBF0FBECDBF6C018E01D6
:100AE000095E1F4F78018AE0882E912CA12CB12C31
:100AF000CB01BA01A50194010E946210942F852FA9
:100B0000605DF80162938F01A901692F782F41156B
:100B100051056105710561F7A7014E1B5F0BBF0110
:100B2000C6010E94450566960FB6F894DEBF0FBE5B
:100B3000CDBFDF91CF911F910F91FF90EF90DF908C
:100B4000CF90BF90AF909F908F900895FC0125812A
:100B5000222339F0F8E02F0290011124820F931F15
:100B6000089590E080E00895FC0101900020E9F7ED
:100B70003197AF01481B590BBC018BEC92E00C94F0
:100B8000FC038F929F92AF92BF920F931F93CF93CC
:100B9000DF93CDB7DEB7A1970FB6F894DEBF0FBED7
:100BA000CDBF19A2423008F44AE08E010F5D1F4FFD
:100BB000842E912CB12CA12CA50194010E946210CD
:100BC000E62FB901CA01EA30F4F4E05DD801EE93F2
:100BD0008D01232B242B252B79F790E080E01097B3
:100BE00019F0CD010E94B405A1960FB6F894DEBFAE
:100BF0000FBECDBFDF91CF911F910F91BF90AF90EE
:100C00009F908F900895E95CE1CFCF93DF930E948E
:100C1000B405EC0188E192E00E94B4058C0F9D1FA1
:100C2000DF91CF910895EF92FF920F931F93CF938F
:100C3000DF93EC018C81982F9F7739F48078806264
:100C40008C83198218821B821A828C8185FD09C0CF
:100C500080E090E0DF91CF911F910F91FF90EF9096
:100C6000089561157105A1F37A018B01888199813D
:100C7000009749F1DC011696ED91FC91D8010D9099
:100C80000020E9F71197AD01401B510B30E020E047
:100C9000309749F0DF010D900020E9F79D012150C8
:100CA00031092E1B3F0B2417350751F4D801200FB3
:100CB000311F2A173B0771F25D9141915417C9F317
:100CC0000E94A605D5CFD7011496ED91FC911597FA
:100CD00012968D919C9113970896E817F90720F4C6
:100CE00081E018968C93B4CF38971596FC93EE93C9
:100CF0001497309709F4ACCFAA81BB81109791F07B
:100D0000CF018A1B9B0B23E0959587952A95E1F7E8
:100D100015968C93FB83EA831582148217830683CE
:100D2000CF0198CFF983E883F5CFFB010190002034
:100D3000E9F73197AF01461B570B0C9445051F93FC
:100D4000CF93DF93EBE1F2E01281112379F0329639
:100D500021816213F9CFEC016CE50E943005612F0F
:100D6000CE01DF91CF911F910C9430056111F9CF25
:100D70006CE272E0DF91CF911F910C9495062F9257
:100D80003F924F925F926F927F928F929F92AF921B
:100D9000BF92CF92DF92EF92FF920F931F93CF9368
:100DA000DF93CDB7DEB76C970FB6F894DEBF0FBEFA
:100DB000CDBF8C011B01DC0114968C9114978F77A9
:100DC000863009F499C268F58230A0F11296ED9050
:100DD000FC901397CC901196DC90843008F05DC2A3
:100DE000A701B601C1010E944505F10182819381ED
:100DF0006C960FB6F894DEBF0FBECDBFDF91CF91DA
:100E00001F910F91FF90EF90DF90CF90BF90AF9028
:100E10009F908F907F906F905F904F903F902F901A
:100E200008958C3069F160F4883009F460C28A302A
:100E300009F446C263E372E0C1010E949506ECC169
:100E4000803209F4F3C18034A9F76BE5C1010E9437
:100E50003005F801008111810115110509F4E1C186
:100E6000B101C8010E94BF06C8010E94A6058C01FD
:100E7000892B09F4D6C16CE2C1010E943005ECCF88
:100E8000F801C080D180E280F380A7019601C701FC
:100E9000B6010E947F0E8111CDCF20E030E0A90184
:100EA000C701B6010E947F0E882379F0A701960141
:100EB000C701B6010E94130E9B01AC01C701B60128
:100EC0000E947F0E882309F4B5CF20E030E0A9010D
:100ED000C701B6010E947F0E87FF08C06DE2C10105
:100EE0000E943005F7FAF094F7F8F09420E836E91C
:100EF00048E15BE4C701B6010E94D70F87FD88C0B7
:100F000074E1A72EB12C00E210E0188E1F8AF501C3
:100F1000E05AFE4F6591759185919491A7019601D4
:100F20000E947F0E18169CF0F501E85BFE4F25919C
:100F3000359145915491C701B6010E94DC0F6B01B8
:100F40007C012F89388D200F311F388F2F8B1595FD
:100F5000079534E0A31AB1088CEFA8168FEFB806F6
:100F6000B1F655245A9420E030E0A901C701B6013A
:100F70000E94D70F18160CF052C02CEA35EC47E24D
:100F800057E3C701B6010E947F0E18160CF447C044
:100F9000A52DB4E0AB02C0011124B12CA12CFC01A1
:100FA000E85BFE4F3F019C01205A3E4F49013FEF55
:100FB000531609F434C0F301EA0DFB1D65917591D8
:100FC0008591949120E030E040E251E40E94DC0FF2
:100FD000A70196010E94D70F18169CF4F401EA0DA0
:100FE000FB1D2591359145915491C701B6010E9491
:100FF000DC0F6B017C018F89988D801B910B988F82
:101000008F8B159507955A9494E0A91AB108CFCF04
:1010100000E210E055E0552E188E1F8AA4CFC701BC
:10102000B6010E94F60E4B015C012B013C0106E06B
:1010300080E492E4AFE0B0E0898F9A8FAB8FBC8FF1
:10104000102F01509AE04916510461047104C8F050
:10105000698D7A8D8B8D9C8D2AE030E040E050E0E8
:101060000E946210298F3A8F4B8F5C8FC301B201AF
:101070002AE030E040E050E00E94621029013A018D
:10108000DFCFC501B4010E94250F9B01AC01C70150
:10109000B6010E94120E6B017C01698D7A8D8B8DD9
:1010A0009C8D0E94250F9B01AC01C701B6010E94D7
:1010B000DC0F2B013C010E94F60E6B017C010E94AB
:1010C000250F9B01AC01C301B2010E94120E9B01CE
:1010D000AC010E94130E0E94F60EC60ED71EE81E2B
:1010E000F91E898D9A8DAB8DBC8DC816D906EA067E
:1010F000FB06D8F09FEF891A990AA90AB90AAF89A5
:10110000B88DAB2B39F1BAE08B169104A104B10470
:1011100008F1EF89F88D3196F88FEF8BC12CD12C27
:101120007601812C912C540183942AE0422E512C7B
:10113000612C712CC701B601A30192010E946210BB
:10114000672B682B692B51F4111644F469017A015D
:101150001150F0CFC12CD12C7601E7CFB501A401FD
:10116000C1010E945A05112371F14E01F1E18F0E68
:10117000911C012F54019AE0492E512C612C712CA5
:10118000015068F0C701B601A30192010E946210EC
:10119000605DD4016E934D0169017A01F1CF812F19
:1011A00090E0BC0160957095F501E81BF90B319753
:1011B0008EE2808344275527461B570B6A0D7B1D03
:1011C000C1010E944505EF89F88DEF2B29F165E6F5
:1011D000C1010E9430050F89188D17FF07C06DE20D
:1011E000C1010E943005119501951109FE01779604
:1011F0009F018AE0E82EF12CC801B7010E944E1031
:10120000805D82938B01672BB9F7A9014E1B5F0BA1
:10121000BF01C1010E944505D10112968D919C919B
:10122000E7CD6DE5C1010E943005F6CF6BE7C10146
:101230000E943005F801008111810115110559F155
:10124000D8011696CC9016971796DC9062E2C101F1
:101250000E9430057601F70161917F01662321F03C
:10126000C1010E949F06F7CF62E2C1010E943005D2
:101270006AE3C1010E943005B101C8010E94BF06A6
:10128000C8010E94A6058C01892B29F06CE2C101DE
:101290000E943005D2CF6DE7C5CF62E2C1010E9446
:1012A00030058601E00EF11EE016F10639F0F80176
:1012B00061918F01C1010E949F06F6CF62E2B2CF19
:1012C000CD90DD90ED90FC90B701A601F7FE0BC02C
:1012D0006DE2C1010E94300544275527BA014C191F
:1012E0005D096E097F09C1010E945A057ECD4D91AD
:1012F0005D916D917C91F7CF8C9168E372E08111E3
:1013000002C06DE372E0C1010E9495066ECD4F925E
:101310005F926F927F928F929F92AF92BF92CF9285
:10132000DF92EF92FF920F931F93CF936B017C019B
:10133000742EAC019B010E944910882399F083E42C
:1013400092E0CF911F910F91FF90EF90DF90CF909F
:10135000BF90AF909F908F907F906F905F904F90D5
:101360000C94B40546015701E894B7F82FEF3FEF0E
:101370004FE75FE7C501B4010E94491081110DC01C
:101380002FEF3FEF4FE75FE7C501B4010E947F0EEB
:1013900018161CF487E492E0D4CF2FEF3FEF4FE70D
:1013A0005FE4C701B6010E94D70F18161CF48BE446
:1013B00092E0C7CF2FEF3FEF4FE75FECC701B601D9
:1013C0000E947F0E87FDF3CF20E030E0A901C70126
:1013D000B6010E947F0E10E000E087FF0AC06DE2B8
:1013E0008BEC92E00E9492048C01F7FAF094F7F8EB
:1013F000F094C0E060E070E080E09FE37C1641F094
:1014000020E030E040E251E40E94840ECF5FF6CF4E
:10141000A70196010E94130E2B013C010E94F60EBB
:101420004B015C014AE00E94C1057C01E00EF11E07
:10143000CC23C1F1C501B4010E94250F9B01AC0171
:10144000C301B2010E94120E4B015C016EE28BECF3
:1014500092E00E949204E80EF91EC15018F120E0BB
:1014600030E040E251E4C501B4010E94DC0F2B01E1
:101470003C010E94F60E4B01B12CA12C4AE0C501A3
:10148000B4010E94C105E80EF91EC501B4010E9415
:10149000250F9B01AC01C301B2010E94120E4B014A
:1014A0005C01DBCFC701CF911F910F91FF90EF90AF
:1014B000DF90CF90BF90AF909F908F907F906F9074
:1014C0005F904F9008951F920F920FB60F921124C4
:1014D0002F933F938F939F93AF93BF938091C702B6
:1014E0009091C802A091C902B091CA023091C20283
:1014F00023E0230F2D3758F50196A11DB11D209330
:10150000C2028093C7029093C802A093C902B0930D
:10151000CA028091C3029091C402A091C502B09109
:10152000C6020196A11DB11D8093C3029093C4020F
:10153000A093C502B093C602BF91AF919F918F91C6
:101540003F912F910F900FBE0F901F90189526E896
:10155000230F0296A11DB11DD2CF1F920F920FB67D
:101560000F9211240BB60F922F933F934F935F93DB
:101570006F937F938F939F93AF93BF93EF93FF935B
:101580008BEC92E00E947004FF91EF91BF91AF91BC
:101590009F918F917F916F915F914F913F912F918B
:1015A0000F900BBE0F900FBE0F901F9018951F92BB
:1015B0000F920FB60F9211240BB60F922F938F93A9
:1015C0009F93EF93FF93E091DB02F091DC02808127
:1015D000E091E102F091E20282FD1DC090818091D4
:1015E000E4028F5F8F732091E502821741F0E09152
:1015F000E402F0E0E553FD4F958F8093E402FF9104
:10160000EF919F918F912F910F900BBE0F900FBE76
:101610000F901F9018958081F2CFEBECF2E01382CF
:10162000128288EE93E0A0E0B0E084839583A683E5
:10163000B7838AE092E09183808385EC90E0958780
:10164000848784EC90E09787868780EC90E0918B8C
:10165000808B81EC90E0938B828B82EC90E0958B79
:10166000848B86EC90E0978B868B118E128E138E76
:10167000148EA8E6B3E089E315968C9315978BE05A
:1016800016968C931697EBE8F2E0E4911796EC939C
:101690001797E5E4F2E0E4911896EC93189740E888
:1016A0005EE360E070E01D964D935D936D937C93D7
:1016B00050970895CF93DF93CDB7DEB763970FB6FA
:1016C000F894DEBF0FBECDBF789484B5826084BD30
:1016D00084B5816084BD85B5826085BD85B5816036
:1016E00085BD80916E00816080936E0010928100B4
:1016F000809181008260809381008091810081606F
:10170000809381008091800081608093800080912F
:10171000B10084608093B1008091B00081608093BB
:10172000B00080919100826080939100809191003F
:1017300081608093910080919000816080939000FF
:101740008091A10082608093A1008091A1008160BE
:101750008093A1008091A00081608093A00080917F
:101760002101826080932101809121018160809319
:1017700021018091200181608093200180917A0075
:10178000846080937A0080917A00826080937A00EE
:1017900080917A00816080937A0080917A008068DD
:1017A00080937A001092C100E091DB02F091DC029C
:1017B00082E08083E091D702F091D8021082E0911C
:1017C000D902F091DA028FEC80831092E302E0916B
:1017D000DF02F091E00286E08083E091DD02F0918B
:1017E000DE02808180618083E091DD02F091DE0283
:1017F000808188608083E091DD02F091DE0280814B
:1018000080688083E091DD02F091DE0280818F7D2F
:10181000808360E087E30E94B80160E088E30E9473
:10182000B80162E080916D030E94B8012FB7F8946F
:101830008091C7029091C802A091C902B091CA02DA
:101840002FBF805D9740A109B109809371039093E8
:101850007203A0937303B093740387E380937A03B6
:1018600087E30E94F401BC01990F880B990B0E9439
:10187000270F2AE037ED43E25CE30E94DC0F609320
:10188000B4027093B5028093B6029093B7028FE4CE
:1018900092E00E94B4056091B4027091B50280910B
:1018A000B6029091B70242E00E94870988E192E077
:1018B0000E94B40588E30E94F4019093B9028093DA
:1018C000B80281E692E00E94B405C090B802D090C0
:1018D000B9020D2C000CEE08FF084AE0C701B60162
:1018E000F7FE0DC06DE28BEC92E00E949204662739
:1018F0007727CB016C197D098E099F094AE00E9468
:10190000C10583E792E00E9405060E9462028823D7
:1019100051F080916E038B3030F08D3048F085515E
:10192000823008F44DC060E070E080EC9FE71CC09E
:101930006091690370E090E080E00E94270F2DEC39
:101940003CEC4CEC5DE30E94DC0F6B017C01609190
:10195000680370E090E080E00E94270F9B01AC01DB
:10196000C701B6010E94130E6093BA027093BB02C6
:101970008093BC029093BD0288E792E00E94B40578
:101980006091BA027091BB028091BC029091BD023D
:1019900042E00E94870982E892E00E9405060E94C8
:1019A0006202882341F080916E038C3009F41AC1E1
:1019B000C8F48B3081F160E070E080EC9FE753C0A9
:1019C000609168037091690376276727762790E016
:1019D00080E00E94250F2DEC3CEC4CEC5DE30E9476
:1019E000DC0FC2CF8551823030F710916A03612F2E
:1019F00070E0762F662766277F7780916B03682BD0
:101A000090E080E00E94250F2DEC3CEC4CEC5DE377
:101A10000E94DC0F03C160916A0370E090E080E0F7
:101A20000E94250F6B017C0110916B0317FF0AC008
:101A3000AC019B0160E070E080E89FEB0E94120E19
:101A40006B017C011F70612F70E090E080E00E94CC
:101A5000270F2DEC3CEC4CEC5DE30E94DC0FA70162
:101A600096010E94130E6093BE027093BF02809392
:101A7000C0029093C10285E892E00E94B405609193
:101A8000BE027091BF028091C0029091C10242E0FB
:101A90000E94870983E992E00E94050680E094E0B5
:101AA0000E948C109C013C5F009711F430E020E014
:101AB0009B838A839D838C833F832E8339872887EA
:101AC0001A861F86AE014E5F5F4F68E972E0CE0155
:101AD0000B960E941306FC01892B81F04091BE02F7
:101AE0005091BF026091C0027091C10294819078C0
:101AF0009C6094834083518362837383AE014E5F05
:101B00005F4F64EA72E0CE010B960E941306FC015F
:101B1000892B81F04091BA025091BB026091BC02C6
:101B20007091BD02948190789C609483408351832E
:101B300062837383AE014E5F5F4F6CEA72E0CE0149
:101B40000B960E941306FC01892B81F02091B802AC
:101B50003091B902948190789A609483C901330FCF
:101B6000AA0BBB0B80839183A283B383AE014E5F2C
:101B70005F4F60EB72E0CE010B960E941306FC01F2
:101B8000892B81F04091B4025091B5026091B60268
:101B90007091B702948190789C60948340835183C4
:101BA000628373838BEC92E0998B888B1B8A1A8AF1
:101BB000BE01605F7F4FCE010B960E94BF0688E199
:101BC00092E00E94B40568E873E180E090E00E9432
:101BD00030028A819B81009711F00E9428110E9497
:101BE000FF043ECE10916A03612F70E090E080E028
:101BF0000E94250F6B017C0160916B036F7070E098
:101C000090E080E00E94270F2DEC3CEC4CEC5DE373
:101C10000E94DC0FA70196010E94130E17FF23CF2D
:101C2000905821CF5058BB27AA270E942A0E0C9407
:101C30009D0F0E948F0F38F00E94960F20F039F40C
:101C40009F3F19F426F40C948C0F0EF4E095E7FBFB
:101C50000C94860FE92F0E94AE0F58F3BA17620753
:101C600073078407950720F079F4A6F50C94D00F3C
:101C70000EF4E0950B2EBA2FA02D0B01B9019001A7
:101C80000C01CA01A0011124FF27591B99F0593FEB
:101C900050F4503E68F11A16F040A22F232F342F33
:101CA0004427585FF3CF469537952795A795F04081
:101CB0005395C9F77EF41F16BA0B620B730B840B96
:101CC000BAF09150A1F0FF0FBB1F661F771F881F4E
:101CD000C2F70EC0BA0F621F731F841F48F48795A6
:101CE00077956795B795F7959E3F08F0B0CF939598
:101CF000880F08F09927EE0F9795879508950E9411
:101D0000620F08F481E008950E94980E0C949D0FD4
:101D10000E94960F58F00E948F0F40F029F45F3F09
:101D200029F00C94860F51110C94D10F0C948C0F48
:101D30000E94AE0F68F39923B1F3552391F3951BDD
:101D4000550BBB27AA2762177307840738F09F5FDC
:101D50005F4F220F331F441FAA1FA9F335D00E2E49
:101D60003AF0E0E832D091505040E695001CCAF7B6
:101D70002BD0FE2F29D0660F771F881FBB1F261779
:101D800037074807AB07B0E809F0BB0B802DBF0150
:101D9000FF2793585F4F3AF09E3F510578F00C941F
:101DA000860F0C94D10F5F3FE4F3983ED4F38695F1
:101DB00077956795B795F7959F5FC9F7880F911D40
:101DC0009695879597F90895E1E0660F771F881F2C
:101DD000BB1F621773078407BA0720F0621B730BDF
:101DE000840BBA0BEE1F88F7E09508950E94B60F9A
:101DF00088F09F5798F0B92F9927B751B0F0E1F0CC
:101E0000660F771F881F991F1AF0BA95C9F714C07B
:101E1000B13091F00E94D00FB1E008950C94D00F32
:101E2000672F782F8827B85F39F0B93FCCF38695B4
:101E300077956795B395D9F73EF490958095709511
:101E400061957F4F8F4F9F4F0895E89409C097FB8E
:101E50003EF490958095709561957F4F8F4F9F4F81
:101E60009923A9F0F92F96E9BB279395F6958795C5
:101E700077956795B795F111F8CFFAF4BB0F11F488
:101E800060FF1BC06F5F7F4F8F4F9F4F16C088232F
:101E900011F096E911C0772321F09EE8872F762F65
:101EA00005C0662371F096E8862F70E060E02AF0A6
:101EB0009A95660F771F881FDAF7880F9695879592
:101EC00097F90895990F0008550FAA0BE0E8FEEF67
:101ED00016161706E807F907C0F012161306E407EE
:101EE000F50798F0621B730B840B950B39F40A26E7
:101EF00061F0232B242B252B21F408950A2609F4C5
:101F0000A140A6958FEF811D811D089597F99F67C8
:101F100080E870E060E008959FEF80EC0895002471
:101F20000A941616170618060906089500240A943E
:101F300012161306140605060895092E0394000CC4
:101F400011F4882352F0BB0F40F4BF2B11F460FF53
:101F500004C06F5F7F4F8F4F9F4F089557FD90587C
:101F6000440F551F59F05F3F71F04795880F97FB5D
:101F7000991F61F09F3F79F0879508951216130617
:101F80001406551FF2CF4695F1DF08C01616170646
:101F90001806991FF1CF869571056105089408957B
:101FA000E894BB2766277727CB0197F908950E940D
:101FB000620F08F48FEF08950E94EF0F0C949D0FAD
:101FC0000E948F0F38F00E94960F20F0952311F099
:101FD0000C94860F0C948C0F11240C94D10F0E943A
:101FE000AE0F70F3959FC1F3950F50E0551F629FA0
:101FF000F001729FBB27F00DB11D639FAA27F00D62
:10200000B11DAA1F649F6627B00DA11D661F829F88
:102010002227B00DA11D621F739FB00DA11D621F6D
:10202000839FA00D611D221F749F3327A00D611D8A
:10203000231F849F600D211D822F762F6A2F11246C
:102040009F5750409AF0F1F088234AF0EE0FFF1F9F
:10205000BB1F661F771F881F91505040A9F79E3FF6
:10206000510580F00C94860F0C94D10F5F3FE4F380
:10207000983ED4F3869577956795B795F795E7954C
:102080009F5FC1F7FE2B880F911D9695879597F955
:1020900008950E94620F880B990B0895AA1BBB1B21
:1020A00051E107C0AA1FBB1FA617B70710F0A61B58
:1020B000B70B881F991F5A95A9F780959095BC0179
:1020C000CD010895A1E21A2EAA1BBB1BFD010DC074
:1020D000AA1FBB1FEE1FFF1FA217B307E407F507D8
:1020E00020F0A21BB30BE40BF50B661F771F881FB4
:1020F000991F1A9469F760957095809590959B014A
:10210000AC01BD01CF010895EE0FFF1F881F8BBFEB
:102110000790F691E02D19940F931F93CF93DF93BF
:102120008230910510F482E090E0E0917D03F0911F
:102130007E0330E020E0B0E0A0E0309799F4211574
:10214000310509F44AC0281B390B24303105D8F574
:102150008A819B816115710589F1FB0193838283DB
:10216000FE0111C040815181028113814817590736
:10217000E0F04817590799F4109761F012960C9304
:10218000129713961C933296CF01DF91CF911F9136
:102190000F91089500937D0310937E03F4CF2115D2
:1021A000310551F04217530738F0A901DB019A01BC
:1021B000BD01DF01F801C1CFEF01F9CF90937E039C
:1021C00080937D03CDCFFE01E20FF31F81939193A6
:1021D0002250310939832883D7CF20917B03309156
:1021E0007C03232B41F420910202309103023093AF
:1021F0007C0320937B032091000230910102211582
:10220000310541F42DB73EB74091040250910502CB
:10221000241B350BE0917B03F0917C03E217F3075D
:10222000A0F42E1B3F0B2817390778F0AC014E5F46
:102230005F4F2417350748F04E0F5F1F50937C0304
:1022400040937B03819391939FCFF0E0E0E09CCF9C
:10225000CF93DF930097E9F0FC013297138212824B
:10226000A0917D03B0917E03ED0130E020E0109756
:10227000A1F420813181820F931F20917B03309143
:102280007C032817390709F061C0F0937C03E093C1
:102290007B03DF91CF910895EA01CE17DF07E8F5C0
:1022A0004A815B819E0141155105B1F7E901FB832C
:1022B000EA8349915991C40FD51FEC17FD0761F4CA
:1022C000808191810296840F951FE901998388830B
:1022D000828193819B838A83F0E0E0E012968D9166
:1022E0009C9113970097B9F52D913C911197CD01D1
:1022F0000296820F931F20917B0330917C03281755
:10230000390739F6309751F510927E0310927D030C
:10231000B0937C03A0937B03BCCFD383C283408163
:102320005181840F951FC817D90761F44E5F5F4F25
:1023300088819981480F591F518340838A819B81ED
:10234000938382832115310509F0B0CFF0937E038A
:10235000E0937D039ECFFD01DC01C0CF138212828A
:10236000D7CFF894FFCF00007F038000000000006B
:102370009204FC032904DF045A0438044C040D0AB7
:10238000002F2F22225C5C6208660C6E0A720D74AC
:1023900009005C7530303030006E756C6C00747202
:1023A00075650066616C7365006E616E00696E66CE
:1023B000006F76660043616E7469646164206465D1
:1023C000206C757A3A200043616E74696461642000
:1023D000646520434F323A20002070706D004875CC
:1023E0006D656461643A200020250054656D706558
:1023F0007261747572613A200020C2B04300546566
:102400006D70657261747572610048756D656461A7
:0A2410006400434F32004C757A005F
:020000040003F7
:10E000000D9489F10D94B2F10D94B2F10D94B2F129
:10E010000D94B2F10D94B2F10D94B2F10D94B2F1F0
:10E020000D94B2F10D94B2F10D94B2F10D94B2F1E0
:10E030000D94B2F10D94B2F10D94B2F10D94B2F1D0
:10E040000D94B2F10D94B2F10D94B2F10D94B2F1C0
:10E050000D94B2F10D94B2F10D94B2F10D94B2F1B0
:10E060000D94B2F10D94B2F10D94B2F10D94B2F1A0
:10E070000D94B2F10D94B2F10D94B2F10D94B2F190
:10E080000D94B2F10D94B2F10D94B2F10D94B2F180
:10E090000D94B2F10D94B2F10D94B2F10D94B2F170
:10E0A0000D94B2F10D94B2F10D94B2F10D94B2F160
:10E0B0000D94B2F10D94B2F10D94B2F10D94B2F150
:10E0C0000D94B2F10D94B2F10D94B2F10D94B2F140
:10E0D0000D94B2F10D94B2F10D94B2F10D94B2F130
:10E0E0000D94B2F141546D656761323536300041AF
:10E0F000726475696E6F206578706C6F72657220DE
:10E1000073746B3530305632206279204D4C530099
:10E11000426F6F746C6F616465723E004875683F52
:10E1200000436F6D70696C6564206F6E203D200048
:10E130004350552054797065202020203D20005FF9
:10E140005F4156525F415243485F5F3D2000415658
:10E1500052204C696243205665723D20004743437C
:10E160002056657273696F6E203D20004350552024
:10E1700049442020202020203D20004C6F7720663D
:10E18000757365202020203D20004869676820665F
:10E190007573652020203D200045787420667573D6
:10E1A00065202020203D20004C6F636B2066757336
:10E1B000652020203D20004D617220203720323024
:10E1C000313300312E362E3800342E332E350056A2
:10E1D00023202020414444522020206F7020636F70
:10E1E00064652020202020696E73747275637469E1
:10E1F0006F6E2061646472202020496E74657272B3
:10E20000757074006E6F20766563746F7200726A49
:10E210006D702020006A6D70200057686174207056
:10E220006F72743A00506F7274206E6F7420737541
:10E2300070706F72746564004D7573742062652030
:10E2400061206C6574746572002000577269747483
:10E25000696E672045450052656164696E672045B7
:10E26000450045452065727220636E743D00504F35
:10E27000525400303D5A65726F2061646472003FF1
:10E280003D43505520737461747300403D454550C3
:10E29000524F4D207465737400423D426C696E6B41
:10E2A000204C454400453D44756D70204545505215
:10E2B0004F4D00463D44756D7020464C415348001B
:10E2C000483D48656C70004C3D4C69737420492F83
:10E2D0004F20506F72747300513D51756974005234
:10E2E0003D44756D702052414D00563D73686F7707
:10E2F00020696E7465727275707420566563746FF0
:10E30000727300593D506F727420626C696E6B00BD
:10E310002A0011241FBECFEFD1E2DEBFCDBF01E046
:10E320000CBF12E0A0E0B2E0EEE1FDEF03E00BBFB6
:10E3300002C007900D92A030B107D9F712E0A0E01B
:10E34000B2E001C01D92AE30B107E1F70F9460F367
:10E350000D948DFE01E20EBF0FEF0DBF11241FBE05
:10E360000D9460F30D9400F020E030E040ED57E0B4
:10E3700005C0FA013197F1F72F5F3F4F2817390792
:10E38000C0F308959C01260F311DC901A0E0B0E043
:10E390002F5F3F4FABBFFC018791882361F08093D3
:10E3A000C6008091C00086FFFCCF8091C0008064D1
:10E3B0008093C000EACF08958DE08093C6008091DD
:10E3C000C00086FFFCCF8091C00080648093C000B5
:10E3D0008AE08093C6008091C00086FFFCCF8091C8
:10E3E000C00080648093C00008950F94C2F10F9420
:10E3F000DCF10895FC019081992359F09093C600B7
:10E400008091C00086FFFCCF8091C0008064809323
:10E41000C0003196992379F70895282F982F929567
:10E420009F70892F805D8A3308F0895F8093C600D2
:10E430008091C00086FFFCCF8091C00080648093F3
:10E44000C000822F8F70982F905D9A3308F0995FEB
:10E450009093C6008091C00086FFFCCF8091C000E1
:10E4600080648093C00008959C01FB01853691056E
:10E470001CF46330710594F0C90164E670E00F94F8
:10E480002EFE605D7F4F6093C6008091C00086FFC6
:10E49000FCCF8091C00080648093C0002B30310598
:10E4A00014F43297B4F0C90164E670E00F942EFEC4
:10E4B0006AE070E00F942EFE605D7F4F6093C600AF
:10E4C0008091C00086FFFCCF8091C0008064809363
:10E4D000C000C9016AE070E00F942EFEC0968093E0
:10E4E000C6008091C00086FFFCCF8091C000806490
:10E4F0008093C00008951F93182F8EE692EE60E07F
:10E500000F94C2F11093C6008091C00086FFFCCF2B
:10E510008091C00080648093C0000F94DCF11F9153
:10E5200008952F923F924F925F926F927F928F92B7
:10E530009F92AF92BF92CF92DF92EF92FF920F9392
:10E540001F93DF93CF93CDB7DEB762970FB6F894E2
:10E55000DEBF0FBECDBF382E622ECA01DB015C01CB
:10E560006D01772420E2222E2E010894411C511CBB
:10E570008BC081E0A81680E0B80681E0C80680E084
:10E58000D80628F0C601AA27BB270F940DF2BB2797
:10E59000AD2D9C2D8B2D0F940DF28A2D0F940DF225
:10E5A0002092C6008091C00086FFFCCF8091C00001
:10E5B00080648093C0009DE29093C6008091C0006B
:10E5C00086FFFCCF8091C00080648093C0002092C1
:10E5D000C6008091C00086FFFCCF8091C00080649F
:10E5E0008093C00019828601750188249924A1E0D6
:10E5F0003A1651F03A1620F0B2E03B1661F409C029
:10E600000BBFF701779007C0C7010F9477FE782EF4
:10E6100002C0F7017080872D0F940DF22092C60082
:10E620008091C00086FFFCCF8091C0008064809301
:10E63000C000872D8052F401EF70F0708F3520F408
:10E64000E40DF51D708204C0E40DF51D8EE280839B
:10E650000894E11CF11C011D111D0894811C911CE2
:10E6600090E18916910409F0C2CF80E190E0A0E02A
:10E67000B0E0A80EB91ECA1EDB1E198AC2010F9493
:10E68000FAF10F94DCF16A94662009F072CF629679
:10E690000FB6F894DEBF0FBECDBFCF91DF911F91B3
:10E6A0000F91FF90EF90DF90CF90BF90AF909F9031
:10E6B0008F907F906F905F904F903F902F90089534
:10E6C0002F923F924F925F926F927F928F929F9282
:10E6D000AF92BF92CF92DF92EF92FF920F931F9370
:10E6E000DF93CF93CDB7DEB7CD53D1400FB6F894BB
:10E6F000DEBF0FBECDBF01E20EBF0FEF0DBF94B75F
:10E70000F894A89514BE80916000886180936000A1
:10E7100010926000789493FF05C0E0910002F091A0
:10E7200001021995279A2F9A8091C00082608093E8
:10E73000C00080E18093C40088E18093C1000000A4
:10E74000EE24FF24870144E0A42EB12CCC24DD2448
:10E7500024C0C5010197F1F70894E11CF11C011DCB
:10E76000111D21E2E2162EE4F20620E0020720E06D
:10E77000120718F031E0C32ED12CC801B70127ECE5
:10E780003BE140E050E00F9441FE611571058105C9
:10E79000910519F485B1805885B98091C00087FD35
:10E7A00003C0C114D104A9F2A6014F5F5F4FC25E3E
:10E7B000DE4F59834883CE51D140C25EDE4F8881FF
:10E7C0009981CE51D140019711F00D9410FEC05D9A
:10E7D000DE4F19821882C053D14060E0C15DDE4F28
:10E7E0001882CF52D14088249924C35DDE4F19820C
:10E7F0001882CD52D140C05EDE4F188219821A8233
:10E800001B82C052D140CE5CDE4F188219821A8220
:10E810001B82C253D140EE24FF2487010BBFF701B6
:10E8200007911691C45CDE4F19830883CC53D14005
:10E830000D940BFEC25EDE4F28813981CE51D1404E
:10E840002130310509F52091C600C25EDE4F1982E4
:10E850001882CE51D14022C02F5F3F4F4F4F5F4FA4
:10E86000213082E138078AE7480780E0580780F0C6
:10E87000C45CDE4FE881F981CC53D140EF5FFF4F9C
:10E8800019F0EE27FF27099420E030E040E050E047
:10E890008091C00087FFE0CF2091C600C35DDE4FAE
:10E8A00048815981CD52D1404F5F5F4FC35DDE4FEC
:10E8B00059834883CD52D140213209F063C64A3092
:10E8C000510508F05FC60894811C911C53E0851621
:10E8D000910409F059C600E010E018C081E280936D
:10E8E000C6008091C00086FFFCCF8091C00080648C
:10E8F0008093C0002F5F3F4F2931310579F70F9486
:10E90000DCF10F5F1F4F0530110519F020E030E0FA
:10E91000E5CF10920A0210920B0210920C02109294
:10E920000D02109206021092070210920802109235
:10E930000902109202021092030210920402109235
:10E9400005028FEE90EE60E00F94F5F180E191EE1C
:10E9500060E00F94C2F18091C00087FFFCCF9091DE
:10E96000C600903608F09F759032B8F09093C600BC
:10E970008091C00086FFFCCF8091C00080648093AE
:10E98000C000A0E2A093C6008091C00086FFFCCF2B
:10E990008091C00080648093C000983409F4D7C18E
:10E9A0009934B8F4923409F459C1933458F490333B
:10E9B00019F1903308F4E3C59F33A1F1903409F0C5
:10E9C000DEC5BDC0953409F470C1963409F0D7C5D1
:10E9D00098C1923509F42BC2933538F49C3409F46C
:10E9E000F5C1913509F0CBC518C2963509F445C279
:10E9F000993509F0C4C567C483E792EE62E00F94CD
:10EA0000F5F110920602109207021092080210927D
:10EA1000090210920A0210920B0210920C0210923C
:10EA20000D0213C18FE792EE62E00F94F5F18FEEC5
:10EA300090EE60E00F94F5F181E291EE60E00F94CA
:10EA4000C2F187EB91EE60E00F94F5F180E391EE77
:10EA500060E00F94C2F184EE90EE60E00F94F5F167
:10EA60008FE391EE60E00F94C2F186E090E061E008
:10EA700070E00F9434F20F94DCF18DE591EE60E0DC
:10EA80000F94C2F189EC91EE60E00F94F5F18EE401
:10EA900091EE60E00F94C2F183EC91EE60E00F9490
:10EAA000F5F18CE691EE60E00F94C2F18EE10F94E7
:10EAB0000DF288E90F940DF281E00F940DF20F949E
:10EAC000DCF18BE791EE60E00F94C2F119E0E0E039
:10EAD000F0E010935700E4918E2F0F940DF20F94F5
:10EAE000DCF18AE891EE60E00F94C2F1E3E0F0E03F
:10EAF00010935700E4918E2F0F940DF20F94DCF1D8
:10EB000089E991EE60E00F94C2F1E2E0F0E0109349
:10EB10005700E4918E2F0F940DF20F94DCF188EAE8
:10EB200091EE60E00F94C2F1E1E0F0E01093570045
:10EB30001491812F0F940DF20F94DCF107CF8BE825
:10EB400092EE62E00F94F5F18BE492EE60E00F94A8
:10EB5000F5F10F94DCF100E010E019C0C8016F2D51
:10EB60000F947FFEFF2031F489E492EE60E00F9471
:10EB7000C2F10BC0F092C6008091C00086FFFCCFAE
:10EB80008091C00080648093C0000F5F1F4FC80158
:10EB900081519F41A0E0B0E0ABBFFC01F790BAE229
:10EBA000FB1621F0E2E000301E07C1F60F94DCF105
:10EBB0000F94DCF187E592EE60E00F94F5F10F948D
:10EBC000DCF1CC24DD2400E010E01EC0C8010F946D
:10EBD00077FEF82E882331F489E492EE60E00F94FA
:10EBE000C2F10BC08093C6008091C00086FFFCCFAD
:10EBF0008091C00080648093C000FE1419F00894D6
:10EC0000C11CD11C0F5F1F4FC80181519F41A0E063
:10EC1000B0E0ABBFFC01E790FAE2EF1621F022E092
:10EC20000030120799F60F94DCF10F94DCF182E6C4
:10EC300092EE60E00F94C2F1C60161E070E00F94C3
:10EC400034F20F94DCF10F94DCF110920202109276
:10EC50000302109204021092050278CE89E992EE26
:10EC600062E00F94F5F1279A2F9A16C02F9880E052
:10EC700090E0E0EDF7E03197F1F7019684369105E9
:10EC8000C1F72F9A80E090E0E0EDF7E03197F1F7DF
:10EC9000019684369105C1F78091C00087FFE6CFC9
:10ECA0008091C00087FFFCCF64C485EA92EE62E0E9
:10ECB0000F94F5F140910202509103026091040219
:10ECC0007091050281E020E10F9491F2809102029F
:10ECD00090910302A0910402B091050280509F4FD1
:10ECE000AF4FBF4F8093020290930302A0930402A0
:10ECF000B093050280509041A040B04008F426CE69
:10ED0000A4CF83EB92EE62E00F94F5F140910602FE
:10ED100050910702609108027091090280E020E1A1
:10ED20000F9491F28091060290910702A09108023F
:10ED3000B091090280509F4FAF4FBF4F80930602A2
:10ED400090930702A0930802B0930902FFCD80ECD4
:10ED500092EE62E00F94F5F183E792EE60E00F949B
:10ED6000F5F18FE792EE60E00F94F5F18BE892EE0B
:10ED700060E00F94F5F189E992EE60E00F94F5F10F
:10ED800085EA92EE60E00F94F5F183EB92EE60E09D
:10ED90000F94F5F180EC92EE60E00F94F5F187ECC2
:10EDA00092EE60E00F94F5F188ED92EE60E00F9442
:10EDB000F5F18FED92EE60E00F94F5F18AEE92EEB0
:10EDC00060E00F94F5F183E093EEBDCD87EC92EE19
:10EDD00062E00F94F5F181E40F947BF282E40F94EA
:10EDE0007BF283E40F947BF284E40F947BF285E45E
:10EDF0000F947BF286E40F947BF287E40F947BF20E
:10EE000088E40F947BF28AE40F947BF28BE40F94F6
:10EE10007BF28CE40F947BF299CD88ED92EE62E068
:10EE20000F94F5F1772473948824992409C48FED05
:10EE300092EE62E00F94F5F140910A0250910B02BC
:10EE400060910C0270910D0282E020E10F9491F22A
:10EE500080910A0290910B02A0910C02B0910D02D8
:10EE600080509F4FAF4FBF4F80930A0290930B0289
:10EE7000A0930C02B0930D0269CD8AEE92EE62E08F
:10EE80000F94F5F184EE90EE60E00F94F5F18FECC5
:10EE900091EE60E00F94F5F1662477244301CC5D98
:10EEA000DE4F19821882C452D140D401C301B695F5
:10EEB000A79597958795CA5DDE4F88839983AA8326
:10EEC000BB83C652D140CC5DDE4FA881B981C4520C
:10EED000D1401196CC5DDE4FB983A883C452D14096
:10EEE000CD0162E070E00F9434F2B0E2B093C6005E
:10EEF0008091C00086FFFCCF8091C0008064809329
:10EF0000C000EDE2E093C6008091C00086FFFCCF18
:10EF10008091C00080648093C000F0E2F093C6004E
:10EF20008091C00086FFFCCF8091C00080648093F8
:10EF3000C000CA5DDE4FE880F9800A811B81C6529D
:10EF4000D140BB27A12F902F8F2D0F940DF2CA5DBA
:10EF5000DE4F8881C652D1400F940DF2B0E2FB2EF5
:10EF6000F092C6008091C00086FFFCCF8091C00067
:10EF700080648093C0000DE30093C6008091C000C0
:10EF800086FFFCCF8091C00080648093C00010E2B7
:10EF90001093C6008091C00086FFFCCF8091C00016
:10EFA00080648093C0008BBEF3012791C65DDE4F65
:10EFB0002883CA52D140A22EBB24CC24DD2408943D
:10EFC000611C711C811C911C8BBEF3018791282E42
:10EFD0003324442455240894611C711C811C911C09
:10EFE0008BBEF3013791C55DDE4F3883CB52D140E4
:10EFF0000894611C711C811C911C8BBEF30147910C
:10F00000C45DDE4F4883CC52D140ADEFEA2EAFEF66
:10F01000FA2EAFEF0A2FAFEF1A2F6E0C7F1C801E57
:10F02000911E142D032DF22CEE24EA0CFB1C0C1D5A
:10F030001D1D0F940DF220E22093C6008091C000A8
:10F0400086FFFCCF8091C00080648093C000C65DC5
:10F05000DE4F8881CA52D1400F940DF230E23093D6
:10F06000C6008091C00086FFFCCF8091C000806404
:10F070008093C000C45DDE4F8881CC52D1400F9494
:10F080000DF240E24093C6008091C00086FFFCCFA5
:10F090008091C00080648093C000C55DDE4F888190
:10F0A000CB52D1400F940DF250E25093C6008091A4
:10F0B000C00086FFFCCF8091C00080648093C000B8
:10F0C0008FEFE8168FEFF80680E0080780E018075A
:10F0D00031F484E092EE60E00F94C2F1DFC0D80119
:10F0E000C7018070907CA070B0708050904CA040A0
:10F0F000B040D1F52FEF3FE340E050E0E222F322B1
:10F1000004231523CA5DDE4FA880B980CA80DB8046
:10F11000C652D140AE0CBF1CC01ED11EAA0CBB1CD7
:10F12000CC1CDD1C8EE092EE60E00F94C2F1BB2798
:10F13000A12F902F8F2D0F940DF28E2D0F940DF285
:10F1400030E23093C6008091C00086FFFCCF8091F2
:10F15000C00080648093C0004EE34093C60080915D
:10F16000C00086FFFCCF87C08EE09EEFA0E0B0E03D
:10F17000E822F9220A231B239CE0E91694E9F90608
:10F1800090E0090790E0190709F088C0C45DDE4FE0
:10F19000A881CC52D140EA2EFF2400E010E0102FCD
:10F1A0000F2DFE2CEE24C55DDE4FB881CB52D14031
:10F1B000EB0EF11C011D111DD601C501817090706F
:10F1C000A070B070DC0199278827E80EF91E0A1F8D
:10F1D0001B1F20EF30E040E050E0A222B322C42207
:10F1E000D52241E1AA0CBB1CCC1CDD1C4A95D1F7F1
:10F1F000EA0CFB1C0C1D1D1D81E090E0A0E0B0E0BE
:10F20000282239224A225B2235E1220C331C441C7D
:10F21000551C3A95D1F7E20CF31C041D151D57013E
:10F220006801AA0CBB1CCC1CDD1C85E192EE60E0E1
:10F230000F94C2F1C801AA27BB270F940DF2BB2778
:10F24000A12F902F8F2D0F940DF28E2D0F940DF274
:10F2500090E29093C6008091C00086FFFCCF809121
:10F26000C00080648093C000AEE3A093C60080918C
:10F27000C00086FFFCCF8091C00080648093C000F6
:10F28000C601AA27BB270F940DF2BB27AD2D9C2DDD
:10F290008B2D0F940DF28A2D0F940DF20F94DCF14B
:10F2A000CC5DDE4FE881F981C452D140F99709F471
:10F2B0004DCBF4E0EF2EF12C012D112D6E0C7F1CA7
:10F2C000801E911EF2CD83E093EE62E00F94F5F183
:10F2D0008AE192EE60E00F94C2F18091C00087FF56
:10F2E000FCCF1091C6001F751093C6008091C0001E
:10F2F00086FFFCCF8091C00080648093C0000F9493
:10F30000DCF1812F81548A3108F036C1163409F4BA
:10F3100095C0173490F4133409F44EC0143430F40B
:10F320001134F1F0123409F01DC130C0143409F465
:10F3300059C0153409F016C16BC01A3409F4C4C0A1
:10F340001B3438F4173409F48FC0183409F00AC19B
:10F35000A1C01B3409F4D2C01C3409F003C1E8C0B9
:10F360008FEF81B90DC082B1809582B980E090E0C5
:10F37000E0EDF7E03197F1F70196883C9105C1F790
:10F380008091C00087FFEFCF12B8EFC08FEF84B934
:10F390000DC085B1809585B980E090E0E0EDF7E0A3
:10F3A0003197F1F70196883C9105C1F78091C00033
:10F3B00087FFEFCF15B8D9C08FEF87B90DC088B1DF
:10F3C000809588B980E090E0E0EDF7E03197F1F7C3
:10F3D0000196883C9105C1F78091C00087FFEFCF6F
:10F3E00018B8C3C08FEF8AB90DC08BB180958BB9A7
:10F3F00080E090E0E0EDF7E03197F1F70196883C8E
:10F400009105C1F78091C00087FFEFCF1BB8ADC059
:10F410008FEF8DB90DC08EB180958EB980E090E0F0
:10F42000E0EDF7E03197F1F70196883C9105C1F7DF
:10F430008091C00087FFEFCF1EB897C08FEF80BBD1
:10F440000DC081B3809581BB80E090E0E0EDF7E0F6
:10F450003197F1F70196883C9105C1F78091C00082
:10F4600087FFEFCF11BA81C08FEF83BB0DC084B38C
:10F47000809584BB80E090E0E0EDF7E03197F1F714
:10F480000196883C9105C1F78091C00087FFEFCFBE
:10F4900014BA6BC08FEF809301010FC080910201FD
:10F4A00080958093020180E090E0E0EDF7E03197F5
:10F4B000F1F70196883C9105C1F78091C00087FF64
:10F4C000EDCF1092020151C08FEF809304010FC065
:10F4D0008091050180958093050180E090E0E0ED4A
:10F4E000F7E03197F1F70196883C9105C1F78091DB
:10F4F000C00087FFEDCF1092050137C08FEF8093DA
:10F5000007010FC08091080180958093080180E079
:10F5100090E0E0EDF7E03197F1F70196883C910536
:10F52000C1F78091C00087FFEDCF109208011DC088
:10F530008FEF80930A010FC080910B01809580931B
:10F540000B0180E090E0E0EDF7E03197F1F70196F4
:10F55000883C9105C1F78091C00087FFEDCF1092E4
:10F560000B0103C085E292EEEEC98091C00087FFD7
:10F57000FCCF8091C600EAC988E392EEE4C98CE131
:10F5800091EEE1C988249924933011F1943028F444
:10F59000913089F09230B8F408C0953061F195301F
:10F5A000F0F0963009F048C043C02B3109F042C951
:10F5B00091E06BE13FC96227C15DDE4F2883CF52E6
:10F5C000D14092E037C9B22FA0E0622793E032C960
:10F5D000822F90E0A82BB92B622794E02BC92E3004
:10F5E00009F039C3622795E0C05DDE4F19821882A9
:10F5F000C053D1401FC9E1E0F0E0EC0FFD1FC05D3A
:10F60000DE4F08811981C053D140E00FF11F2083E4
:10F610000F5F1F4FC05DDE4F19830883C053D14079
:10F6200062270A171B0709F005C9D80196E002C92D
:10F63000261709F010C303C0973009F0FBC87724E0
:10F640009981933109F412C19431C8F4963009F4C8
:10F65000D8C0973050F4923009F406C1933009F4C1
:10F660006DC0913009F059C253C0913109F477C08F
:10F67000923108F0BBC0903109F04FC2F5C098310B
:10F6800009F487C0993150F4953109F4EFC09531F0
:10F6900008F4C6C1963109F040C2C2C19A3109F4DA
:10F6A0006CC09A3108F491C09B3109F45BC09D3164
:10F6B00009F033C29D81903359F48F81882311F46E
:10F6C0009EE11CC0813011F091E018C098E916C08D
:10F6D000892F807591F0903539F4E0E0F0E089E011
:10F6E0008093570094910AC0983539F4E3E0F0E034
:10F6F00089E080935700949101C090E01A821B82A8
:10F700008D818C831D829E831F8227E030E009C299
:10F710001A8288E08B8381E48C8386E58D8382E581
:10F720008E8389E48F8383E5888780E589878FE5E9
:10F730008A8782E38B872BE030E0F3C18A818139AD
:10F7400041F0823941F0803911F48FE005C080E04A
:10F7500003C082E001C08AE01A828B8344C0772410
:10F76000739482C08D81882311F48EE12CC0813086
:10F7700011F081E028C088E926C01A82E1E0F0E0BB
:10F7800089E08093570084918B831C8224E030E0D1
:10F79000C8C18B81803589F48C81883039F4E2E0EE
:10F7A000F0E089E08093570084910DC0E0E0F0E044
:10F7B00089E080935700849106C0E3E0F0E089E09F
:10F7C0008093570084911A82DFCF8D81836C99E0FA
:10F7D000E1E0F0E0082E90935700E89507B600FCB2
:10F7E000FDCF1A821B8223E030E09BC180EC8A832C
:10F7F000CE5CDE4F188219821A821B82C253D1401E
:10F800008EC18A8190E0A0E0B0E0582F44273327D2
:10F8100022278B8190E0A0E0B0E0DC0199278827C7
:10F82000282B392B4A2B5B2B8D8190E0A0E0B0E098
:10F83000282B392B4A2B5B2B8C8190E0A0E0B0E089
:10F84000BA2FA92F982F8827282B392B4A2B5B2BCF
:10F85000220F331F441F551FC05EDE4F288339839C
:10F860004A835B83C052D1401A8259C13A81C95C34
:10F87000DE4F3883C753D140CA5CDE4F1882C6536F
:10F88000D1408B81C82EDD24CA5CDE4F488159816E
:10F89000C653D140C42AD52A933109F082C0CE5C28
:10F8A000DE4F88819981AA81BB81C253D1408050AB
:10F8B000904CA340B04030F583E0CE5CDE4FE88052
:10F8C000F9800A811B81C253D140F70100935B008C
:10F8D00080935700E89507B600FCFDCFCE5CDE4F65
:10F8E000088119812A813B81C253D14000501F4FAA
:10F8F0002F4F3F4FCE5CDE4F088319832A833B8313
:10F90000C253D140C05EDE4F488159816A817B81FC
:10F91000C052D140DE011B9631E08C9111962C91A2
:10F9200011971296C75CDE4F2883C953D140C85C3B
:10F93000DE4F1882C853D14090E0C85CDE4FE881AA
:10F94000F981C853D1408E2B9F2B0C01FA01609393
:10F950005B0030935700E89511244E5F5F4F6F4F67
:10F960007F4F0EEFE02E0FEFF02ECE0CDF1CC114F8
:10F97000D10499F685E0C05EDE4F088119812A81A5
:10F980003B81C052D140F80120935B008093570027
:10F99000E89507B600FCFDCF81E180935700E8951C
:10F9A00035C0C05EDE4F88819981AA81BB81C0527B
:10F9B000D140B695A795979587957C018601ABE0D8
:10F9C000AA2EB12CAC0EBD1E0BC0D5016D915D01F0
:10F9D000C7010F947FFE0894E11CF11C01501040F8
:10F9E0000115110591F7A60160E070E0440F551F65
:10F9F000661F771FC05EDE4FE880F9800A811B8199
:10FA0000C052D1404E0D5F1D601F711F1A82C05E33
:10FA1000DE4F488359836A837B83C052D1407FC0C5
:10FA2000FA80C55CDE4FF882CB53D140C65CDE4F16
:10FA30001882CA53D1408B81C82EDD24C65CDE4FAC
:10FA400008811981CA53D140C02AD12A1A828981DA
:10FA5000BE016D5F7F4F843121F59601C05EDE4FA0
:10FA6000E880F9800A811B81C052D1400BBFF701A9
:10FA700087919691DB018C9311969C936E5F7F4FDB
:10FA8000D801C7010296A11DB11DC05EDE4F88835B
:10FA90009983AA83BB83C052D14022503040F1F6F3
:10FAA00036C0C05EDE4F288139814A815B81C052F9
:10FAB000D1400894C108D108760100E010E0089414
:10FAC000C11CD11C0894E11CF11C011D111DE20E8A
:10FAD000F31E041F151F21BDBB27A52F942F832FB5
:10FAE00082BD2F5F3F4F4F4F5F4FF89A80B5DB01CC
:10FAF0008D93BD012E153F054007510761F7C05E8C
:10FB0000DE4F288339834A835B83C052D1409601FC
:10FB10002D5F3F4FFB01108204C080EC8A8322E0FE
:10FB200030E08BE18093C6008091C00086FFFCCF5F
:10FB30008091C00080648093C000C15DDE4FF88179
:10FB4000CF52D140F093C6008091C00086FFFCCF19
:10FB50008091C00080648093C000432F3093C60022
:10FB60008091C00086FFFCCF8091C00080648093AC
:10FB7000C000922F2093C6008091C00086FFFCCF6A
:10FB80008091C00080648093C0008EE08093C600A6
:10FB90008091C00086FFFCCF8091C000806480937C
:10FBA000C00065E1C15DDE4FE880CF52D1406E25D7
:10FBB00069276427FE01319610C090819093C6009A
:10FBC0008091C00086FFFCCF31968091C000806498
:10FBD0008093C0006927215030402115310569F715
:10FBE0006093C6008091C00086FFFCCF8091C0006A
:10FBF00080648093C00085B1805885B9772081F4F6
:10FC0000C15DDE4F0881CF52D1400F5FC15DDE4F35
:10FC10000883CF52D14090E0A0E0B0E00D941AF4F8
:10FC200027982F9880E090E020ED37E0F901319798
:10FC3000F1F7019684369105C9F700008091C00064
:10FC40008D7F8093C00081E180935700E895EE2777
:10FC5000FF270994FFCF90E00D941AF497FB092E2B
:10FC600007260AD077FD04D02ED006D000201AF443
:10FC7000709561957F4F0895F6F7909581959F4F08
:10FC80000895A1E21A2EAA1BBB1BFD010DC0AA1FDD
:10FC9000BB1FEE1FFF1FA217B307E407F50720F0F5
:10FCA000A21BB30BE40BF50B661F771F881F991F70
:10FCB0001A9469F760957095809590959B01AC01B9
:10FCC000BD01CF010895AA1BBB1B51E107C0AA1FAC
:10FCD000BB1FA617B70710F0A61BB70B881F991FED
:10FCE0005A95A9F780959095BC01CD010895F99991
:10FCF000FECF92BD81BDF89A992780B50895262F31
:10FD0000F999FECF1FBA92BD81BD20BD0FB6F89400
:0EFD1000FA9AF99A0FBE01960895F894FFCF63
:00000001FF
