:100000000C944D010C947E010C947E010C947E01A5
:100010000C947E010C947E010C947E010C947E0164
:100020000C947E010C947E010C947E010C947E0154
:100030000C947E010C947E010C947E010C947E0144
:100040000C947E010C947E010C947E010C947E0134
:100050000C947E010C947E010C947E010C94630A36
:100060000C947E010C94D70A0C94AD0A0C947E017A
:100070000C947E010C947E010C947E010C947E0104
:100080000C947E010C947E010C947E010C947E01F4
:100090000C947E010C947E010C947E010C947E01E4
:1000A0000C947E010C947E010C947E010C947E01D4
:1000B0000C947E010C947E010C947E010C947E01C4
:1000C0000C947E010C947E010C947E010C947E01B4
:1000D0000C947E010C947E010C947E010C947E01A4
:1000E0000C947E010C945A030C9468030C946203E4
:1000F0000C944A030C945A040C9454030C94430338
:100100000C9401030C9438040C946C030C940D0BA8
:100110000C94DF040C9470030C9429040C94500389
:100120000C947A030C945E030C94FC030C943F0330
:100130000C9492040C9476030C94FC020C943B03F4
:100140000C9447030C944C04CDCCCC3D0AD7233CF3
:1001500017B7D13877CC2B329595E6241FB14F0ACB
:10016000000020410000C84200401C4620BCBE4C9C
:10017000CA1B0E5AAEC59D74000021002400270042
:100180002A002D00300033000101000004010701A6
:100190000A0100002200250028002B002E0031005B
:1001A000340002010000050108010B0100000A0BE8
:1001B00002090C0D0E0807030401000000000000F6
:1001C000000000000000000000000000000000002F
:1001D00000000000000000001211100000000000EC
:1001E000000000000000000000000000000000000F
:1001F0000000000020002300260029002C002F0012
:100200003200000100000301060109010505050592
:10021000070508080808020202020A0A080804047E
:1002200004040101010101010101030303030303AC
:100230000303040707070C0C0C0C0C0C0C0C02023B
:10024000020206060606060606060B0B0B0B0B0B38
:100250000B0B0102102020080810204010204080C5
:10026000020102010804020101020408102040807A
:100270008040201008040201800402018040201008
:100280000804020108040201010204081020408051
:1002900001020408102040800D0B11241FBECFEF77
:1002A000D1E2DEBFCDBF00E00CBF12E0A0E0B2E0C3
:1002B000E6E6F3E200E00BBF02C007900D92A43B1C
:1002C000B107D9F723E0A4EBB2E001C01D92AF372C
:1002D000B207E1F711E0CDE4D1E000E006C02197DC
:1002E0000109802FFE010E948410CC34D10780E0E8
:1002F0000807A9F70E945A0B0C94B1110C94000046
:10030000CF92DF92EF92FF92CF93DF93B0916F0382
:10031000A0E08111AB2F8091700390E0880F991FAE
:10032000AC014E505E4FC0907503D0907603E090C4
:100330007703F090780330E020E0FA01C591D49182
:10034000E881B90190E080E0EB23EA130AC02F5F57
:100350003F4F6C157D058E059F0578F36FEF7FEF9E
:10036000CB01DF91CF91FF90EF90DF90CF90089578
:10037000CF93DF9390E0FC01EE5AFD4F2491845F10
:100380009D4FFC0184918823C9F090E0880F991F4C
:10039000FC01E858FE4FA591B491FC01EE56FE4FCA
:1003A000C591D49161110DC09FB7F8948C9120959F
:1003B00082238C938881282328839FBFDF91CF914C
:1003C0000895623051F49FB7F8943C91822F809544
:1003D00083238C93E8812E2BEFCF8FB7F894EC9189
:1003E0002E2B2C938FBFEACF90917B00977F909319
:1003F0007B008653806480937C0080917A008064C7
:1004000080937A0080917A0086FDFCCF80917800FD
:100410009091790008953FB7F8948091C30290912C
:10042000C402A091C502B091C60226B5A89B05C022
:100430002F3F19F00196A11DB11D3FBFBA2FA92F63
:10044000982F8827BC01CD01620F711D811D911D60
:1004500042E0660F771F881F991F4A95D1F70895CC
:100460008F929F92AF92BF92CF92DF92EF92FF92C4
:100470004B015C010E940B026B017C010E940B028C
:100480006C197D098E099F09683E734081059105AD
:10049000A8F321E0821A9108A108B10888EEC80EDD
:1004A00083E0D81EE11CF11C81149104A104B10465
:1004B00029F7FF90EF90DF90CF90BF90AF909F9083
:1004C0008F9008958F929F92AF92BF92EF92FF927A
:1004D0000F931F93CF93DF93CDB7DEB7C054D140B6
:1004E0000FB6F894DEBF0FBECDBF2FB7F894809142
:1004F000C7029091C802A091C902B091CA022FBF51
:100500004091710350917203609173037091740371
:100510008C019D01041B150B260B370BB901A8019B
:10052000403D574061057105A0F480917903C05C9E
:10053000DE4F0FB6F894DEBF0FBECDBFDF91CF9177
:100540001F910F91FF90EF90BF90AF909F908F9071
:1005500008958093710390937203A0937303B093F3
:10056000740310926C0310926B0310926A03109242
:1005700069031092680362E080916D030E94B801E4
:1005800061E070E080E090E00E94300261E08091E4
:100590006D030E94B80120916D0330E0F901E4552C
:1005A000FE4F8491F901EE5AFD4F9491245F3D4F27
:1005B000F9012491222309F433C0882311F18150D9
:1005C0008231F8F4E82FF0E08827E651FD4F8F4F95
:1005D0000C94841043034703FC023B033F030103D5
:1005E0004A03500354035A035E03620368036C0317
:1005F0000103700376037A03809180008F778093E4
:100600008000E22FF0E0EE0FFF1FEE56FE4FA591A7
:10061000B4918FB7F894EC9190959E239C938FBFE3
:1006200080916E038551823008F068C08BE291E1C1
:100630000197F1F762E080916D030E94B80180910B
:100640007A0390E08230910538F0880F991F880F67
:10065000991F05970197F1F7F89480E00E948001B7
:100660006F3F7F4F8F4F9F4F09F04FC0109279031C
:10067000789480E05CCF809180008F7DC0CF8091A6
:100680008000877FBCCF84B58F7784BDBACF84B517
:100690008F7DFBCF8091B0008F778093B000B1CF7A
:1006A0008091B0008F7DF9CF809190008F778093FB
:1006B0009000A7CF809190008F7DF9CF809190001E
:1006C000877FF5CF8091A0008F778093A00099CF8E
:1006D0008091A0008F7DF9CF8091A000877FF5CF1A
:1006E000809120018F77809320018BCF8091200112
:1006F0008F7DF9CF80912001877FF5CF64E170E095
:1007000080E090E00E94300295CF81E00E9480015D
:100710006F3F7F4F8F4F9F4F09F4A8CF9E012F5FF0
:100720003F4F79015E013FEBA31A3EEFB30A870109
:1007300080E00E948001F80160837183828393834B
:1007400081E00E948001F80164837583868397832A
:10075000085F1F4FA016B10659F7789430E020E0EB
:10076000F70180809180A280B380448155816681A9
:100770007781FFEF8F169F06AF06BF0631F04F3F20
:100780000FEF50076007700719F41092790371CFCB
:10079000F90183E0F595E7958A95E1F7E859FC4F73
:1007A0008081880F84169506A606B70618F1808307
:1007B0002F5F3F4F18E0E10EF11C2832310581F622
:1007C00040916C032091680380916903280F3327BF
:1007D000331F80916A03280F311D80916B03820FB4
:1007E000932F911D99274817190679F681E0809378
:1007F00079039DCE8160DBCFAF92BF92CF92DF9223
:10080000EF92FF920F931F93CF93DF936C017B01C5
:100810008B01040F151FEB015E01AE18BF08C01756
:10082000D10759F06991D601ED91FC910190F081C9
:10083000E02DC6011995892B79F7C501DF91CF917C
:100840001F910F91FF90EF90DF90CF90BF90AF90EE
:100850000895FC01538D448D252F30E0842F90E0C6
:10086000821B930B541710F0CF96089501970895AB
:10087000FC01918D828D981761F0A28DAE0FBF2F74
:10088000B11D5D968C91928D9F5F9F73928F90E0CA
:1008900008958FEF9FEF0895FC01918D828D981739
:1008A00031F0828DE80FF11D858D90E008958FEF76
:1008B0009FEF0895FC01918D228D892F90E0805C3F
:1008C0009F4F821B91098F73992708958BEC92E0BB
:1008D0000E945A0421E0892B09F420E0822F089518
:1008E000FC01A48DA80FB92FB11DA35ABF4F2C91A5
:1008F000848D90E001968F739927848FA689B7899C
:100900002C93A089B1898C91837080648C93938D92
:10091000848D981306C00288F389E02D80818F7D35
:1009200080830895EF92FF920F931F93CF93DF93ED
:10093000EC0181E0888F9B8D8C8D98131AC0E8891B
:10094000F989808185FF15C09FB7F894EE89FF89EA
:100950006083E889F98980818370806480839FBF88
:1009600081E090E0DF91CF911F910F91FF90EF9088
:100970000895F62E0B8D10E00F5F1F4F0F73112798
:10098000E02E8C8D8E110CC00FB607FCFACFE889D3
:10099000F989808185FFF5CFCE010E947004F1CFE7
:1009A000EB8DEC0FFD2FF11DE35AFF4FF0829FB747
:1009B000F8940B8FEA89FB8980818062CFCFCF9337
:1009C000DF93EC01888D8823B9F0AA89BB89E88977
:1009D000F9898C9185FD03C0808186FD0DC00FB61D
:1009E00007FCF7CF8C9185FFF2CF808185FFEDCF9B
:1009F000CE010E947004E9CFDF91CF91089580E08D
:100A000090E0892B29F00E94660481110E94000069
:100A100080E090E0892B49F080E090E0892B29F07C
:100A20000E94000081110E94000080E090E0892B6C
:100A300049F080E090E0892B29F00E9400008111AC
:100A40000E94000080E090E0892B49F080E090E077
:100A5000892B29F00E94000081110C940000089558
:100A6000CF93DF93EC0188819981DC01ED91FC91BA
:100A70000190F081E02D19952A813B81820F931F0F
:100A80009B838A83DF91CF910895CF93DF93EC010D
:100A900088819981DC01ED91FC910280F381E02D48
:100AA00019952A813B81820F931F9B838A83DF9153
:100AB000CF9108958F929F92AF92BF92CF92DF9283
:100AC000EF92FF920F931F93CF93DF93CDB7DEB7D3
:100AD00066970FB6F894DEBF0FBECDBF6C018E01D6
:100AE000095E1F4F78018AE0882E912CA12CB12C31
:100AF000CB01BA01A50194010E946210942F852FA9
:100B0000605DF80162938F01A901692F782F41156B
:100B100051056105710561F7A7014E1B5F0BBF0110
:100B2000C6010E94450566960FB6F894DEBF0FBE5B
:100B3000CDBFDF91CF911F910F91FF90EF90DF908C
:100B4000CF90BF90AF909F908F900895FC0125812A
:100B5000222339F0F8E02F0290011124820F931F15
:100B6000089590E080E00895FC0101900020E9F7ED
:100B70003197AF01481B590BBC018BEC92E00C94F0
:100B8000FC038F929F92AF92BF920F931F93CF93CC
:100B9000DF93CDB7DEB7A1970FB6F894DEBF0FBED7
:100BA000CDBF19A2423008F44AE08E010F5D1F4FFD
:100BB000842E912CB12CA12CA50194010E946210CD
:100BC000E62FB901CA01EA30F4F4E05DD801EE93F2
:100BD0008D01232B242B252B79F790E080E01097B3
:100BE00019F0CD010E94B405A1960FB6F894DEBFAE
:100BF0000FBECDBFDF91CF911F910F91BF90AF90EE
:100C00009F908F900895E95CE1CFCF93DF930E948E
:100C1000B405EC0188E192E00E94B4058C0F9D1FA1
:100C2000DF91CF910895EF92FF920F931F93CF938F
:100C3000DF93EC018C81982F9F7739F48078806264
:100C40008C83198218821B821A828C8185FD09C0CF
:100C500080E090E0DF91CF911F910F91FF90EF9096
:100C6000089561157105A1F37A018B01888199813D
:100C7000009749F1DC011696ED91FC91D8010D9099
:100C80000020E9F71197AD01401B510B30E020E047
:100C9000309749F0DF010D900020E9F79D012150C8
:100CA00031092E1B3F0B2417350751F4D801200FB3
:100CB000311F2A173B0771F25D9141915417C9F317
:100CC0000E94A605D5CFD7011496ED91FC911597FA
:100CD00012968D919C9113970896E817F90720F4C6
:100CE00081E018968C93B4CF38971596FC93EE93C9
:100CF0001497309709F4ACCFAA81BB81109791F07B
:100D0000CF018A1B9B0B23E0959587952A95E1F7E8
:100D100015968C93FB83EA831582148217830683CE
:100D2000CF0198CFF983E883F5CFFB010190002034
:100D3000E9F73197AF01461B570B0C9445051F93FC
:100D4000CF93DF93EBE1F2E01281112379F0329639
:100D500021816213F9CFEC016CE50E943005612F0F
:100D6000CE01DF91CF911F910C9430056111F9CF25
:100D70006CE272E0DF91CF911F910C9495062F9257
:100D80003F924F925F926F927F928F929F92AF921B
:100D9000BF92CF92DF92EF92FF920F931F93CF9368
:100DA000DF93CDB7DEB76C970FB6F894DEBF0FBEFA
:100DB000CDBF8C011B01DC0114968C9114978F77A9
:100DC000863009F499C268F58230A0F11296ED9050
:100DD000FC901397CC901196DC90843008F05DC2A3
:100DE000A701B601C1010E944505F10182819381ED
:100DF0006C960FB6F894DEBF0FBECDBFDF91CF91DA
:100E00001F910F91FF90EF90DF90CF90BF90AF9028
:100E10009F908F907F906F905F904F903F902F901A
:100E200008958C3069F160F4883009F460C28A302A
:100E300009F446C263E372E0C1010E949506ECC169
:100E4000803209F4F3C18034A9F76BE5C1010E9437
:100E50003005F801008111810115110509F4E1C186
:100E6000B101C8010E94BF06C8010E94A6058C01FD
:100E7000892B09F4D6C16CE2C1010E943005ECCF88
:100E8000F801C080D180E280F380A7019601C701FC
:100E9000B6010E947F0E8111CDCF20E030E0A90184
:100EA000C701B6010E947F0E882379F0A701960141
:100EB000C701B6010E94130E9B01AC01C701B60128
:100EC0000E947F0E882309F4B5CF20E030E0A9010D
:100ED000C701B6010E947F0E87FF08C06DE2C10105
:100EE0000E943005F7FAF094F7F8F09420E836E91C
:100EF00048E15BE4C701B6010E94D70F87FD88C0B7
:100F000074E1A72EB12C00E210E0188E1F8AF501C3
:100F1000E05AFE4F6591759185919491A7019601D4
:100F20000E947F0E18169CF0F501E85BFE4F25919C
:100F3000359145915491C701B6010E94DC0F6B01B8
:100F40007C012F89388D200F311F388F2F8B1595FD
:100F5000079534E0A31AB1088CEFA8168FEFB806F6
:100F6000B1F655245A9420E030E0A901C701B6013A
:100F70000E94D70F18160CF052C02CEA35EC47E24D
:100F800057E3C701B6010E947F0E18160CF447C044
:100F9000A52DB4E0AB02C0011124B12CA12CFC01A1
:100FA000E85BFE4F3F019C01205A3E4F49013FEF55
:100FB000531609F434C0F301EA0DFB1D65917591D8
:100FC0008591949120E030E040E251E40E94DC0FF2
:100FD000A70196010E94D70F18169CF4F401EA0DA0
:100FE000FB1D2591359145915491C701B6010E9491
:100FF000DC0F6B017C018F89988D801B910B988F82
:101000008F8B159507955A9494E0A91AB108CFCF04
:1010100000E210E055E0552E188E1F8AA4CFC701BC
:10102000B6010E94F60E4B015C012B013C0106E06B
:1010300080E492E4AFE0B0E0898F9A8FAB8FBC8FF1
:10104000102F01509AE04916510461047104C8F050
:10105000698D7A8D8B8D9C8D2AE030E040E050E0E8
:101060000E946210298F3A8F4B8F5C8FC301B201AF
:101070002AE030E040E050E00E94621029013A018D
:10108000DFCFC501B4010E94250F9B01AC01C70150
:10109000B6010E94120E6B017C01698D7A8D8B8DD9
:1010A0009C8D0E94250F9B01AC01C701B6010E94D7
:1010B000DC0F2B013C010E94F60E6B017C010E94AB
:1010C000250F9B01AC01C301B2010E94120E9B01CE
:1010D000AC010E94130E0E94F60EC60ED71EE81E2B
:1010E000F91E898D9A8DAB8DBC8DC816D906EA067E
:1010F000FB06D8F09FEF891A990AA90AB90AAF89A5
:10110000B88DAB2B39F1BAE08B169104A104B10470
:1011100008F1EF89F88D3196F88FEF8BC12CD12C27
:101120007601812C912C540183942AE0422E512C7B
:10113000612C712CC701B601A30192010E946210BB
:10114000672B682B692B51F4111644F469017A015D
:101150001150F0CFC12CD12C7601E7CFB501A401FD
:10116000C1010E945A05112371F14E01F1E18F0E68
:10117000911C012F54019AE0492E512C612C712CA5
:10118000015068F0C701B601A30192010E946210EC
:10119000605DD4016E934D0169017A01F1CF812F19
:1011A00090E0BC0160957095F501E81BF90B319753
:1011B0008EE2808344275527461B570B6A0D7B1D03
:1011C000C1010E944505EF89F88DEF2B29F165E6F5
:1011D000C1010E9430050F89188D17FF07C06DE20D
:1011E000C1010E943005119501951109FE01779604
:1011F0009F018AE0E82EF12CC801B7010E944E1031
:10120000805D82938B01672BB9F7A9014E1B5F0BA1
:10121000BF01C1010E944505D10112968D919C919B
:10122000E7CD6DE5C1010E943005F6CF6BE7C10146
:101230000E943005F801008111810115110559F155
:10124000D8011696CC9016971796DC9062E2C101F1
:101250000E9430057601F70161917F01662321F03C
:10126000C1010E949F06F7CF62E2C1010E943005D2
:101270006AE3C1010E943005B101C8010E94BF06A6
:10128000C8010E94A6058C01892B29F06CE2C101DE
:101290000E943005D2CF6DE7C5CF62E2C1010E9446
:1012A00030058601E00EF11EE016F10639F0F80176
:1012B00061918F01C1010E949F06F6CF62E2B2CF19
:1012C000CD90DD90ED90FC90B701A601F7FE0BC02C
:1012D0006DE2C1010E94300544275527BA014C191F
:1012E0005D096E097F09C1010E945A057ECD4D91AD
:1012F0005D916D917C91F7CF8C9168E372E08111E3
:1013000002C06DE372E0C1010E9495066ECD4F925E
:101310005F926F927F928F929F92AF92BF92CF9285
:10132000DF92EF92FF920F931F93CF936B017C019B
:10133000742EAC019B010E944910882399F083E42C
:1013400092E0CF911F910F91FF90EF90DF90CF909F
:10135000BF90AF909F908F907F906F905F904F90D5
:101360000C94B40546015701E894B7F82FEF3FEF0E
:101370004FE75FE7C501B4010E94491081110DC01C
:101380002FEF3FEF4FE75FE7C501B4010E947F0EEB
:1013900018161CF487E492E0D4CF2FEF3FEF4FE70D
:1013A0005FE4C701B6010E94D70F18161CF48BE446
:1013B00092E0C7CF2FEF3FEF4FE75FECC701B601D9
:1013C0000E947F0E87FDF3CF20E030E0A901C70126
:1013D000B6010E947F0E10E000E087FF0AC06DE2B8
:1013E0008BEC92E00E9492048C01F7FAF094F7F8EB
:1013F000F094C0E060E070E080E09FE37C1641F094
:1014000020E030E040E251E40E94840ECF5FF6CF4E
:10141000A70196010E94130E2B013C010E94F60EBB
:101420004B015C014AE00E94C1057C01E00EF11E07
:10143000CC23C1F1C501B4010E94250F9B01AC0171
:10144000C301B2010E94120E4B015C016EE28BECF3
:1014500092E00E949204E80EF91EC15018F120E0BB
:1014600030E040E251E4C501B4010E94DC0F2B01E1
:101470003C010E94F60E4B01B12CA12C4AE0C501A3
:10148000B4010E94C105E80EF91EC501B4010E9415
:10149000250F9B01AC01C301B2010E94120E4B014A
:1014A0005C01DBCFC701CF911F910F91FF90EF90AF
:1014B000DF90CF90BF90AF909F908F907F906F9074
:1014C0005F904F9008951F920F920FB60F921124C4
:1014D0002F933F938F939F93AF93BF938091C702B6
:1014E0009091C802A091C902B091CA023091C20283
:1014F00023E0230F2D3758F50196A11DB11D209330
:10150000C2028093C7029093C802A093C902B0930D
:10151000CA028091C3029091C402A091C502B09109
:10152000C6020196A11DB11D8093C3029093C4020F
:10153000A093C502B093C602BF91AF919F918F91C6
:101540003F912F910F900FBE0F901F90189526E896
:10155000230F0296A11DB11DD2CF1F920F920FB67D
:101560000F9211240BB60F922F933F934F935F93DB
:101570006F937F938F939F93AF93BF93EF93FF935B
:101580008BEC92E00E947004FF91EF91BF91AF91BC
:101590009F918F917F916F915F914F913F912F918B
:1015A0000F900BBE0F900FBE0F901F9018951F92BB
:1015B0000F920FB60F9211240BB60F922F938F93A9
:1015C0009F93EF93FF93E091DB02F091DC02808127
:1015D000E091E102F091E20282FD1DC090818091D4
:1015E000E4028F5F8F732091E502821741F0E09152
:1015F000E402F0E0E553FD4F958F8093E402FF9104
:10160000EF919F918F912F910F900BBE0F900FBE76
:101610000F901F9018958081F2CFEBECF2E01382CF
:10162000128288EE93E0A0E0B0E084839583A683E5
:10163000B7838AE092E09183808385EC90E0958780
:10164000848784EC90E09787868780EC90E0918B8C
:10165000808B81EC90E0938B828B82EC90E0958B79
:10166000848B86EC90E0978B868B118E128E138E76
:10167000148EA8E6B3E089E315968C9315978BE05A
:1016800016968C931697EBE8F2E0E4911796EC939C
:101690001797E5E4F2E0E4911896EC93189740E888
:1016A0005EE360E070E01D964D935D936D937C93D7
:1016B00050970895CF93DF93CDB7DEB763970FB6FA
:1016C000F894DEBF0FBECDBF789484B5826084BD30
:1016D00084B5816084BD85B5826085BD85B5816036
:1016E00085BD80916E00816080936E0010928100B4
:1016F000809181008260809381008091810081606F
:10170000809381008091800081608093800080912F
:10171000B10084608093B1008091B00081608093BB
:10172000B00080919100826080939100809191003F
:1017300081608093910080919000816080939000FF
:101740008091A10082608093A1008091A1008160BE
:101750008093A1008091A00081608093A00080917F
:101760002101826080932101809121018160809319
:1017700021018091200181608093200180917A0075
:10178000846080937A0080917A00826080937A00EE
:1017900080917A00816080937A0080917A008068DD
:1017A00080937A001092C100E091DB02F091DC029C
:1017B00082E08083E091D702F091D8021082E0911C
:1017C000D902F091DA028FEC80831092E302E0916B
:1017D000DF02F091E00286E08083E091DD02F0918B
:1017E000DE02808180618083E091DD02F091DE0283
:1017F000808188608083E091DD02F091DE0280814B
:1018000080688083E091DD02F091DE0280818F7D2F
:10181000808360E087E30E94B80160E088E30E9473
:10182000B80162E080916D030E94B8012FB7F8946F
:101830008091C7029091C802A091C902B091CA02DA
:101840002FBF805D9740A109B109809371039093E8
:101850007203A0937303B093740387E380937A03B6
:1018600087E30E94F401BC01990F880B990B0E9439
:10187000270F2AE037ED43E25CE30E94DC0F609320
:10188000B4027093B5028093B6029093B7028FE4CE
:1018900092E00E94B4056091B4027091B50280910B
:1018A000B6029091B70242E00E94870988E192E077
:1018B0000E94B40588E30E94F4019093B9028093DA
:1018C000B80281E692E00E94B405C090B802D090C0
:1018D000B9020D2C000CEE08FF084AE0C701B60162
:1018E000F7FE0DC06DE28BEC92E00E949204662739
:1018F0007727CB016C197D098E099F094AE00E9468
:10190000C10583E792E00E9405060E9462028823D7
:1019100051F080916E038B3030F08D3048F085515E
:10192000823008F44DC060E070E080EC9FE71CC09E
:101930006091690370E090E080E00E94270F2DEC39
:101940003CEC4CEC5DE30E94DC0F6B017C01609190
:10195000680370E090E080E00E94270F9B01AC01DB
:10196000C701B6010E94130E6093BA027093BB02C6
:101970008093BC029093BD0288E792E00E94B40578
:101980006091BA027091BB028091BC029091BD023D
:1019900042E00E94870982E892E00E9405060E94C8
:1019A0006202882341F080916E038C3009F41AC1E1
:1019B000C8F48B3081F160E070E080EC9FE753C0A9
:1019C000609168037091690376276727762790E016
:1019D00080E00E94250F2DEC3CEC4CEC5DE30E9476
:1019E000DC0FC2CF8551823030F710916A03612F2E
:1019F00070E0762F662766277F7780916B03682BD0
:101A000090E080E00E94250F2DEC3CEC4CEC5DE377
:101A10000E94DC0F03C160916A0370E090E080E0F7
:101A20000E94250F6B017C0110916B0317FF0AC008
:101A3000AC019B0160E070E080E89FEB0E94120E19
:101A40006B017C011F70612F70E090E080E00E94CC
:101A5000270F2DEC3CEC4CEC5DE30E94DC0FA70162
:101A600096010E94130E6093BE027093BF02809392
:101A7000C0029093C10285E892E00E94B405609193
:101A8000BE027091BF028091C0029091C10242E0FB
:101A90000E94870983E992E00E94050680E094E0B5
:101AA0000E948C109C013C5F009711F430E020E014
:101AB0009B838A839D838C833F832E8339872887EA
:101AC0001A861F86AE014E5F5F4F68E972E0CE0155
:101AD0000B960E941306FC01892B81F04091BE02F7
:101AE0005091BF026091C0027091C10294819078C0
:101AF0009C6094834083518362837383AE014E5F05
:101B00005F4F64EA72E0CE010B960E941306FC015F
:101B1000892B81F04091BA025091BB026091BC02C6
:101B20007091BD02948190789C609483408351832E
:101B300062837383AE014E5F5F4F6CEA72E0CE0149
:101B40000B960E941306FC01892B81F02091B802AC
:101B50003091B902948190789A609483C901330FCF
:101B6000AA0BBB0B80839183A283B383AE014E5F2C
:101B70005F4F60EB72E0CE010B960E941306FC01F2
:101B8000892B81F04091B4025091B5026091B60268
:101B90007091B702948190789C60948340835183C4
:101BA000628373838BEC92E0998B888B1B8A1A8AF1
:101BB000BE01605F7F4FCE010B960E94BF0688E199
:101BC00092E00E94B40568E873E180E090E00E9432
:101BD00030028A819B81009711F00E9428110E9497
:101BE000FF043ECE10916A03612F70E090E080E028
:101BF0000E94250F6B017C0160916B036F7070E098
:101C000090E080E00E94270F2DEC3CEC4CEC5DE373
:101C10000E94DC0FA70196010E94130E17FF23CF2D
:101C2000905821CF5058BB27AA270E942A0E0C9407
:101C30009D0F0E948F0F38F00E94960F20F039F40C
:101C40009F3F19F426F40C948C0F0EF4E095E7FBFB
:101C50000C94860FE92F0E94AE0F58F3BA17620753
:101C600073078407950720F079F4A6F50C94D00F3C
:101C70000EF4E0950B2EBA2FA02D0B01B9019001A7
:101C80000C01CA01A0011124FF27591B99F0593FEB
:101C900050F4503E68F11A16F040A22F232F342F33
:101CA0004427585FF3CF469537952795A795F04081
:101CB0005395C9F77EF41F16BA0B620B730B840B96
:101CC000BAF09150A1F0FF0FBB1F661F771F881F4E
:101CD000C2F70EC0BA0F621F731F841F48F48795A6
:101CE00077956795B795F7959E3F08F0B0CF939598
:101CF000880F08F09927EE0F9795879508950E9411
:101D0000620F08F481E008950E94980E0C949D0FD4
:101D10000E94960F58F00E948F0F40F029F45F3F09
:101D200029F00C94860F51110C94D10F0C948C0F48
:101D30000E94AE0F68F39923B1F3552391F3951BDD
:101D4000550BBB27AA2762177307840738F09F5FDC
:101D50005F4F220F331F441FAA1FA9F335D00E2E49
:101D60003AF0E0E832D091505040E695001CCAF7B6
:101D70002BD0FE2F29D0660F771F881FBB1F261779
:101D800037074807AB07B0E809F0BB0B802DBF0150
:101D9000FF2793585F4F3AF09E3F510578F00C941F
:101DA000860F0C94D10F5F3FE4F3983ED4F38695F1
:101DB00077956795B795F7959F5FC9F7880F911D40
:101DC0009695879597F90895E1E0660F771F881F2C
:101DD000BB1F621773078407BA0720F0621B730BDF
:101DE000840BBA0BEE1F88F7E09508950E94B60F9A
:101DF00088F09F5798F0B92F9927B751B0F0E1F0CC
:101E0000660F771F881F991F1AF0BA95C9F714C07B
:101E1000B13091F00E94D00FB1E008950C94D00F32
:101E2000672F782F8827B85F39F0B93FCCF38695B4
:101E300077956795B395D9F73EF490958095709511
:101E400061957F4F8F4F9F4F0895E89409C097FB8E
:101E50003EF490958095709561957F4F8F4F9F4F81
:101E60009923A9F0F92F96E9BB279395F6958795C5
:101E700077956795B795F111F8CFFAF4BB0F11F488
:101E800060FF1BC06F5F7F4F8F4F9F4F16C088232F
:101E900011F096E911C0772321F09EE8872F762F65
:101EA00005C0662371F096E8862F70E060E02AF0A6
:101EB0009A95660F771F881FDAF7880F9695879592
:101EC00097F90895990F0008550FAA0BE0E8FEEF67
:101ED00016161706E807F907C0F012161306E407EE
:101EE000F50798F0621B730B840B950B39F40A26E7
:101EF00061F0232B242B252B21F408950A2609F4C5
:101F0000A140A6958FEF811D811D089597F99F67C8
:101F100080E870E060E008959FEF80EC0895002471
:101F20000A941616170618060906089500240A943E
:101F300012161306140605060895092E0394000CC4
:101F400011F4882352F0BB0F40F4BF2B11F460FF53
:101F500004C06F5F7F4F8F4F9F4F089557FD90587C
:101F6000440F551F59F05F3F71F04795880F97FB5D
:101F7000991F61F09F3F79F0879508951216130617
:101F80001406551FF2CF4695F1DF08C01616170646
:101F90001806991FF1CF869571056105089408957B
:101FA000E894BB2766277727CB0197F908950E940D
:101FB000620F08F48FEF08950E94EF0F0C949D0FAD
:101FC0000E948F0F38F00E94960F20F0952311F099
:101FD0000C94860F0C948C0F11240C94D10F0E943A
:101FE000AE0F70F3959FC1F3950F50E0551F629FA0
:101FF000F001729FBB27F00DB11D639FAA27F00D62
:10200000B11DAA1F649F6627B00DA11D661F829F88
:102010002227B00DA11D621F739FB00DA11D621F6D
:10202000839FA00D611D221F749F3327A00D611D8A
:10203000231F849F600D211D822F762F6A2F11246C
:102040009F5750409AF0F1F088234AF0EE0FFF1F9F
:10205000BB1F661F771F881F91505040A9F79E3FF6
:10206000510580F00C94860F0C94D10F5F3FE4F380
:10207000983ED4F3869577956795B795F795E7954C
:102080009F5FC1F7FE2B880F911D9695879597F955
:1020900008950E94620F880B990B0895AA1BBB1B21
:1020A00051E107C0AA1FBB1FA617B70710F0A61B58
:1020B000B70B881F991F5A95A9F780959095BC0179
:1020C000CD010895A1E21A2EAA1BBB1BFD010DC074
:1020D000AA1FBB1FEE1FFF1FA217B307E407F507D8
:1020E00020F0A21BB30BE40BF50B661F771F881FB4
:1020F000991F1A9469F760957095809590959B014A
:10210000AC01BD01CF010895EE0FFF1F881F8BBFEB
:102110000790F691E02D19940F931F93CF93DF93BF
:102120008230910510F482E090E0E0917D03F0911F
:102130007E0330E020E0B0E0A0E0309799F4211574
:10214000310509F44AC0281B390B24303105D8F574
:102150008A819B816115710589F1FB0193838283DB
:10216000FE0111C040815181028113814817590736
:10217000E0F04817590799F4109761F012960C9304
:10218000129713961C933296CF01DF91CF911F9136
:102190000F91089500937D0310937E03F4CF2115D2
:1021A000310551F04217530738F0A901DB019A01BC
:1021B000BD01DF01F801C1CFEF01F9CF90937E039C
:1021C00080937D03CDCFFE01E20FF31F81939193A6
:1021D0002250310939832883D7CF20917B03309156
:1021E0007C03232B41F420910202309103023093AF
:1021F0007C0320937B032091000230910102211582
:10220000310541F42DB73EB74091040250910502CB
:10221000241B350BE0917B03F0917C03E217F3075D
:10222000A0F42E1B3F0B2817390778F0AC014E5F46
:102230005F4F2417350748F04E0F5F1F50937C0304
:1022400040937B03819391939FCFF0E0E0E09CCF9C
:10225000CF93DF930097E9F0FC013297138212824B
:10226000A0917D03B0917E03ED0130E020E0109756
:10227000A1F420813181820F931F20917B03309143
:102280007C032817390709F061C0F0937C03E093C1
:102290007B03DF91CF910895EA01CE17DF07E8F5C0
:1022A0004A815B819E0141155105B1F7E901FB832C
:1022B000EA8349915991C40FD51FEC17FD0761F4CA
:1022C000808191810296840F951FE901998388830B
:1022D000828193819B838A83F0E0E0E012968D9166
:1022E0009C9113970097B9F52D913C911197CD01D1
:1022F0000296820F931F20917B0330917C03281755
:10230000390739F6309751F510927E0310927D030C
:10231000B0937C03A0937B03BCCFD383C283408163
:102320005181840F951FC817D90761F44E5F5F4F25
:1023300088819981480F591F518340838A819B81ED
:10234000938382832115310509F0B0CFF0937E038A
:10235000E0937D039ECFFD01DC01C0CF138212828A
:06236000D7CFF894FFCF77
:1023660000007F038000000000009204FC032904A3
:10237600DF045A0438044C040D0A002F2F22225C75
:102386005C6208660C6E0A720D7409005C7530306A
:102396003030006E756C6C00747275650066616C29
:1023A6007365006E616E00696E66006F7666004347
:1023B600616E7469646164206465206C757A3A2084
:1023C6000043616E746964616420646520434F3222
:1023D6003A20002070706D0048756D656461643A3E
:1023E600200020250054656D7065726174757261F8
:1023F6003A200020C2B0430054656D706572617466
:102406007572610048756D6564616400434F320002
:042416004C757A0087
:00000001FF
